:020000040800F2
:10000000F01200204D0200087F1200088111000844
:100010007D12000843040008091C000800000000CD
:10002000000000000000000000000000531B00085A
:100030008D04000800000000511B0008551B00083B
:1000400067020008670200086702000867020008EC
:1000500067020008670200086702000867020008DC
:1000600067020008670200086702000867020008CC
:1000700067020008670200086702000867020008BC
:1000800067020008670200086702000867020008AC
:10009000670200086702000867020008670200089C
:1000A000670200086702000867020008670200088C
:1000B000670200086702000867020008670200087C
:1000C000670200086702000867020008670200086C
:1000D000670200086702000867020008670200085C
:1000E000670200086702000867020008670200084C
:1000F000670200086702000867020008670200083C
:10010000670200086702000867020008670200082B
:10011000670200086702000867020008670200081B
:10012000670200086702000867020008670200080B
:1001300067020008670200086702000867020008FB
:1001400067020008670200086702000867020008EB
:1001500067020008670200086702000867020008DB
:1001600067020008670200086702000867020008CB
:10017000670200086702000867020008000000002C
:1001800067020008670200086702000867020008AB
:10019000670200086702000867020008670200089B
:1001A00000000000000000006702000800F002F8F4
:1001B00000F03CF80AA090E8000C82448344AAF1C5
:1001C0000107DA4501D100F031F8AFF2090EBAE8C3
:1001D0000F0013F0010F18BFFB1A43F0010318477B
:1001E0005422000074220000103A24BF78C878C15D
:1001F000FAD8520724BF30C830C144BF04680C602D
:10020000704700000023002400250026103A28BF74
:1002100078C1FBD8520728BF30C148BF0B60704778
:100220001FB502F0F5F81FBD10B510BD00F0CFF8F6
:100230001146FFF7F5FF01F01FFD00F0EDF803B4E4
:10024000FFF7F2FF03BC00F0F5F800000948804713
:1002500009480047FEE7FEE7FEE7FEE7FEE7FEE7A8
:10026000FEE7FEE7FEE7FEE704480549054A064BC0
:1002700070470000F91B0008AD010008F00C0020D9
:10028000F0120020F00E0020F00E002053EA020CC5
:1002900000F069802DE9F04B4FF00006002B1FBFE6
:1002A000B3FA83F503FA05F424FA05F65E4012BFAB
:1002B0001643B2FA82F502FA05F4C5F120051EBF15
:1002C00022FA05FC44EA0C04203556EA044C4FEAB5
:1002D000144418BF641C4FF000084FF0000990420E
:1002E00071EB030C39D3002919BFB1FA81F701FA78
:1002F00007F6B0FA80F700FA07F6C7F120071EBF2D
:1003000020FA07FC46EA0C062037B6FBF4FCA7EB04
:100310000507103F07F01F0BCBF120060CFA0BFB73
:100320002CFA06F644BFB3460026202FA4BF5E4633
:100330004FF0000B5BEA060C08BF4FF0010B19EB06
:100340000B09ABFB027C48EB0608C01B06FB02CC8A
:100350000BFB03CC71EB0C01C1E70B460246414697
:100360004846BDE8F08B13B54FF000004FF0000198
:10037000AFF30080BDE81C4070474FF0000200B5AD
:10038000134694469646203922BFA0E80C50A0E8B8
:100390000C50B1F12001BFF4F7AF090728BFA0E866
:1003A0000C5048BF0CC05DF804EB890028BF40F832
:1003B000042B08BF704748BF20F8022B11F0804F74
:1003C00018BF00F8012B704770477047704775469B
:1003D00000F02CF8AE4605006946534620F00700B1
:1003E000854618B020B5FFF73FFFBDE820404FF02D
:1003F00000064FF000074FF000084FF0000B21F00F
:100400000701AC46ACE8C009ACE8C009ACE8C009DB
:10041000ACE8C0098D46704710B50446AFF30080C4
:100420002046BDE81040FFF70ABF000000487047B3
:10043000900C002001491820ABBEFEE72600020008
:100440007047FEE738B50E4C4FF400752560002567
:10045000A560E560082525610A4C050A25706070D5
:10046000080AA070E170100A20716271180AA07168
:10047000E3716B4622460249034800F01CF838BD80
:10048000780C00201900002024000020704772B66C
:10049000FEE790F82020012A07D0022A05D0416A01
:1004A00041F48021416201207047006842690A439B
:1004B000426100207047F0B590F820500468A468AD
:1004C000012D05D0022D03D0416A41F480215DE069
:1004D00014F0406F01D1E50055D5C4F30164022C3E
:1004E00003D9416A41F4000150E00125A5401D6097
:1004F0008D684FF4C0739DB1CE6835434E6845EAB0
:10050000C605066803EB0417F5514FF4C27507687A
:1005100005EB04150E697E51097D012905D009E01E
:100520000E88CD6845EA4655EBE701684E5946F41A
:1005300080764E511179D579567941EA05619579E0
:100540002D0445EA062529434FF4C676056806EBD7
:100550000416A9511178D57841EA05619578527849
:100560002D0445EA022211434FF4C475026805EBDD
:1005700004155151006803EB0411425842F0010286
:1005800042500020F0BD416A41F400114162012057
:10059000F0BD000010B590F82020012A07D0022AF3
:1005A00005D0416A41F480214162012010BD3B48E1
:1005B000D0F8002242F00102C0F80022D0F8002258
:1005C00022F47C52C0F80022D0F800224B6A42EAA2
:1005D0000322C0F800220A7D02F01F0301229A4084
:1005E000D0F81C329343C0F81C32CB69B3B9D0F8B1
:1005F0000C329343C0F80C328C894B6864F31F4370
:100600004C6900EBC404C4F840320C890B6864F3F5
:100610001F434C6900EBC404C4F84432CB69012B7E
:1006200016D1D0F80C321343C0F80C320C884B684A
:1006300064F31F434C6900EBC404C4F840320C89D6
:10064000CB6864F31F434C6900EBC404C4F8443224
:100650008B69002BD0F804320ED01343C0F804325B
:100660000B69002BD0F8143208D01343C0F81432B1
:10067000096A012904D008E09343EFE79343F5E7C3
:10068000D0F81C121143C0F81C12D0F8001221F04F
:100690000101C0F80012002010BD000000640040FD
:1006A00070B5040003D094F8200010B104E00120DC
:1006B00070BD204600F082F82068016841F0010119
:1006C000016000F0FDF90546052604E000F0F8F9A8
:1006D000401B0A2811D820684068C007F6D020685F
:1006E000016821F00201016000F0EAF905460BE023
:1006F00000F0E6F9401B0A2806D9606A40F4003091
:10070000606284F82060D2E7206840688007EFD4F8
:10071000207E0128206801683DD021F08001016021
:10072000607E01282068016838D021F04001016016
:10073000A07E01282068016833D021F020010160EB
:10074000E07E0128206801682ED041F01001016090
:10075000207F01282068016829D021F0080101606C
:10076000607F01282068016824D021F00401016025
:10077000D4E902010843D4E9041211430843616833
:10078000491E08432168C86100206062012084F886
:100790002000002070BD41F08001C0E741F0400121
:1007A000C5E741F02001CAE721F01001CFE741F091
:1007B0000801D4E741F00401D9E7000010B586B084
:1007C000044614216846FFF7D8FD14492068884282
:1007D00021D113480021026842F0007202600068D3
:1007E00000F0007005900E481038026842F00202D6
:1007F0000260006800F0020005904FF44070009025
:100800000220CDE9010103200390092004906946EC
:10081000044800F035F806B010BD00000064004048
:10082000403802400004024070B5044690F82000B1
:10083000012804D0606A40F40020606218E00220C1
:1008400084F820002068016821F00101016000F0B7
:1008500037F905460EE000BF00F032F9401B0A28C8
:1008600008D9606A40F400306062052084F82000F6
:10087000012070BD20684068C007EDD1606270BD86
:100880002DE9F84FDFF8F8A10022012403254FF0ED
:100890000F090AF1040BAAF1040E00BF0B6804FA59
:1008A00002F63340B34270D10F7907F00307012FEE
:1008B00001D0022F16D187684FEA420805FA08FCDA
:1008C00027EA0C07D1F80CC00CFA08FC4CEA070C1C
:1008D000C0F808C04768B7430E79C6F300169640C3
:1008E0003E4346600E79F643B6070AD0C7684FEA22
:1008F000420C05FA0CF6B7438E6806FA0CF63E4336
:10090000C6600E7906F00306022E10D1D60800EB61
:100910008608D8F8206057074FEAD76C09FA0CF719
:10092000BE430F6907FA0CF73743C8F82070066812
:100930004FEA420C05FA0CF7BE430F7907F00307A4
:1009400007FA0CF7374307604E6816F4403F1CD097
:100950004C4E376847F480473760366822F003070B
:1009600006F480460096484E07EB060CDCF8086853
:1009700097073F0F09FA07F826EA0806DFF80C8107
:10098000404503D14FF0000841E072E0DFF80081FC
:10099000404502D14FF0010839E0DFF8F8804045CA
:1009A00002D14FF0020832E0DFF8EC80404502D17E
:1009B0004FF003082BE0DFF8E480404502D14FF010
:1009C000040824E0DFF8D880404502D14FF0050844
:1009D0001DE0DFF8D080404502D14FF0060816E058
:1009E000DFF8C480404502D14FF007080FE0DFF880
:1009F000BC80404502D14FF0080808E0DFF8B08025
:100A0000404502D14FF0090801E04FF00A0808FA0A
:100A100007F848EA0608CCF80888DAF80060574674
:100A2000D1F804C09E435FEACC2C00D51E433E6043
:100A3000DBF800605F46D1F804C09E435FEA8C2C6F
:100A400000D51E433E60DEF800607746D1F804C052
:100A50009E435FEA8C3C00D51E433E60084F083F32
:100A60003E68D1F804C09E435FEACC3C00D51E43EB
:100A70003E60521C102AFFF411AFBDE8F88F000051
:100A8000083C014044380240003001400000024070
:100A90000004024000080240000C02400010024026
:100AA0000014024000180240001C024000200240D6
:100AB000002402400AB1816170470904FBE700008D
:100AC00001488068704700000800002002488168E3
:100AD0000278114481607047080000200B4810B56F
:100AE000016841F400710160016841F480610160B6
:100AF000016841F480710160032000F061F80F206B
:100B000000F006F800F024F8002010BD003C024080
:100B100070B50D4D04464FF47A712878B1FBF0F0B2
:100B20000A490968B1FBF0F000F016FB48B9102C37
:100B300007D200222146501E00F022F800206C60EF
:100B400070BD012070BD00000800002014000020CE
:100B50000A4808B5016841F480410160006800F46A
:100B6000804000900548001F016841F080510160FD
:100B7000006800F08050009008BD0000443802403A
:100B8000F0B40E4B1B680C46C3F30223C3F10705F8
:100B9000042D00D90425191D072901D2002300E0E6
:100BA000DB1E012606FA05F1491E214099409E40B0
:100BB000761E16403143F0BC01F027B80CED00E082
:100BC000064900F0070208684FF6FF03184040EAA4
:100BD0000220034A10430860704700000CED00E05B
:100BE0000000FA052DE9F8431748016841F08051EB
:100BF00001600068154F00F08050012600903E64AF
:100C0000FFF75EFF05464FF47A78114C05E000BF10
:100C1000FFF756FF401B40450DD86068C003F7D56D
:100C20007E64FFF74DFF0546464607E0FFF748FFA5
:100C3000401BB04202D90320BDE8F88360688003FE
:100C4000F4D50020F8E700004038024000000E42D2
:100C5000007000402DE9F0470E46050065D0DFF832
:100C60001481D8F80000F7B200F00F00B04207D2AC
:100C700088F80070D8F8000000F00F00B04254D19E
:100C800028683D4C810712D5400703D5206840F401
:100C9000E05020602878000703D5206840F46040C9
:100CA00020602068A96820F0F000084320602878C0
:100CB000C0072DD0304968680839012812D00228B1
:100CC00013D0032811D00968890700292DDA21687B
:100CD00021F0030101432160FFF7F2FE814641F25A
:100CE000883A0EE009688903EFE709688901ECE7B3
:100CF000FFF7E6FEA0EB0901514502D90320BDE84C
:100D0000F0872068696800F00C00B0EB810FEFD12C
:100D1000D8F80010404601F00F01B14207D9077022
:100D2000006800F00F00B04201D00120E7E728780A
:100D3000400705D52068E96820F4E05008432060AA
:100D40002878000706D52068296920F4604040EA29
:100D5000C100206000F018F82168084AC1F30311AF
:100D6000515CC8400649086006480068FFF7D0FE9D
:100D70000020C4E7003C0240083802402424000858
:100D8000140000200C000020154810B5006810F079
:100D90000C02144813D01449042A0FD0082A0ED18B
:100DA0000F4C241F2268236802F03F025B0207D524
:100DB0002068C0F38810A0FB010106E0084610BDC2
:100DC0002168C1F38811A1FB00010023FFF75EFA3F
:100DD0002168C1F30141491C4900B0FBF1F010BD8D
:100DE000083802400024F400001BB7002DE9F84F3A
:100DF00004006ED02078DFF84C93C007A9F10405F9
:100E00004AD009F104000168C1F38101012908D029
:100E10000068C0F3810002280AD1D9F8000040021E
:100E200006D52868800337D560680028E1D033E014
:100E30006068B0F5803F10D0B0F5A02F286810D0C2
:100E400020F480302860286820F4802028606068C2
:100E5000A8B1FFF735FE06460DE0286840F4803063
:100E6000F4E740F480202860F7E700BFFFF728FE92
:100E7000801B642873D828688003F7D50CE0FFF73F
:100E80001FFE064605E000BFFFF71AFE801B642820
:100E9000F0D828688003F7D42078DFF8AC82800788
:100EA0004FF0000A3ED5A748001D016811F00C0F55
:100EB00008D00068C0F3810002280BD1D9F80000E7
:100EC000400207D42868800716D5E068012800D1C1
:100ED00012E033E1E068B8B10120C8F80000FFF784
:100EE000EFFD064605E000BFFFF7EAFD801B022884
:100EF000C0D828688007F7D52868216920F0F80055
:100F000040EAC10028600DE0C8F800A0FFF7D8FD56
:100F1000064604E0FFF7D4FD801B02281FD828688E
:100F20008007F7D42078000722D5864F874861696B
:100F3000703771B101210160FFF7C2FD064604E080
:100F4000FFF7BEFD801B022809D838688007F7D557
:100F50000EE0C0F800A0FFF7B3FD064605E082E012
:100F6000FFF7AEFD801B02287DD838688007F7D4D4
:100F70002078400768D5DFF8CCB100270BF13C0B97
:100F8000DBF80000C0000BD4DBF8001041F080510A
:100F9000CBF80010DBF80000012700F08050009033
:100FA0006B4E3068C00510D4306840F480703060FB
:100FB000FFF786FD009005E0FFF782FD0099401ADB
:100FC000022850D83068C005F6D55E4EA0686C3651
:100FD00001280FD00528306810D020F001003060C3
:100FE000306820F004003060A068B8B1FFF768FDF9
:100FF00000900FE0306840F00100F4E740F004009A
:101000003060F7E7FFF75CFD0099411A41F2883044
:10101000814266D830688007F4D50EE0FFF750FDB6
:10102000009007E0FFF74CFD0099411A41F288302B
:10103000814256D830688007F4D42FB1DBF8001015
:1010400021F08051CBF80010A069C8B33D49091DBB
:101050000968C1F3810102294AD00228504607D00D
:10106000C8F8600000E03CE0FFF72AFD04463BE0E2
:101070004746C8F86000FFF723FD064605E000BFBD
:10108000FFF71EFD801B02282BD828688001F7D4AB
:10109000D4E907010843A16A2E4A490802EB01413D
:1010A000626A41EA8211084394F82C1040EA016117
:1010B000C9F8001001203866FFF702FD044606E07B
:1010C0003EE000BFFFF7FCFC001B022809D828689F
:1010D0008001F7D534E000BFFFF7F2FC001B0228C7
:1010E00002D90320BDE8F88F28688001F4D427E0F6
:1010F0000128F7D0D9F80000E26900F4800191429C
:101100001CD1226A00F03F01914217D147F6C0710D
:10111000626A0140B1EB821F10D1A26A4FF0FF3327
:1011200000F4403103EB5202B1EB024F06D194F8C8
:101130002C1000F07060B0EB016F01D00120D1E7FE
:101140000020CFE70438024000004742800E4742AB
:10115000007000400000FFFF10B5401EB0F1807F1E
:1011600001D3012010BD4FF0E02460610F21601712
:1011700000F04BFD0020A06107202061002010BD81
:10118000FEE700000E4810B50C49016003214160E4
:1011900000214FF440228160C0E9031241610176D1
:1011A00041768176C17601774177FFF779FA002899
:1011B00003D0BDE81040FFF76AB910BD00640040DD
:1011C000240000202DE9F04186B014216846FFF785
:1011D000D4F827480024016841F002010160016849
:1011E00001F002010591016841F00101016001680F
:1011F00001F001010591016841F080010160016881
:1012000001F080010591016841F010010160016861
:1012100001F010010591016841F0200101600068B2
:10122000144F00F020004FF400650590002229467D
:101230003846FFF73FFCDFF84080EE0000223146E1
:101240004046FFF737FC00950125CDE9015469467A
:1012500038460394FFF714FB0096CDE90154694624
:1012600040460394FFF70CFB06B0BDE8F081000098
:10127000303802400010024000140240FEE7FEE752
:1012800070B50D462DED088BB0EE409AF0EE609AE9
:10129000B0EE418AF0EE618A90ED0E0B044653ECFD
:1012A000102B51EC180B00F093FF02D294ED0E8B33
:1012B00012E094ED0E0B51EC100B00F017FD53EC07
:1012C000182B00F085FF07D294ED0E0B51EC100B9C
:1012D00000F00CFD41EC180B012D02D0002D72D056
:1012E000C3E053EC192B51EC180B00F0A7FF41ECB5
:1012F000180B84ED1A8B94ED200B53EC182B51EC4A
:10130000100B00F031FD41EC190B51EC180B84ED82
:10131000209B94ED180B53EC102B00F08FFF41EC49
:101320001A0B53EC182B84ED22AB84ED188B94ED43
:10133000000B51EC100B00F04DFE94ED020B41EC54
:10134000180B53EC192B51EC100B00F043FE94EDED
:10135000040B41EC190B53EC1A2B51EC100B00F061
:1013600039FE94ED240B41EC1B0B51EC100B00F0FB
:10137000C9FC0AEE100A51EC190B00F0C3FC00EE98
:10138000100AF0EE4A0A00F050FC94ED260B51ECE6
:10139000100B00F0B7FC0AEE100A51EC180B00F02D
:1013A000B1FC00EE100AF0EE4A0A00F03EFC53ECED
:1013B000192B51EC180B00F0D7FC41EC100B53EC3F
:1013C0001B2B4CE0FFE753EC192B51EC180B00F0F2
:1013D00035FF41EC180B84ED1A8B94ED200B53EC88
:1013E000182B51EC100B00F0BFFC41EC1A0B51EC28
:1013F000180B84ED20AB94ED180B53EC102B00F080
:101400001DFF41EC190B53EC182B84ED229B84ED4E
:10141000188B94ED000B51EC100B00F0DBFD94EDFC
:10142000020B41EC180B53EC1A2B51EC100B00F093
:10143000D1FD94ED040B41EC1A0B53EC192B51EC3C
:10144000100B00F0C7FD41EC190B53EC1A2B51ECBB
:10145000180B00F089FC53EC192B41EC100B51ECEC
:10146000100B00F081FCC4E9100194ED081B94ED11
:10147000100B53EC112B51EC100B00F0A9FE03D212
:1014800094ED080B84ED100B94ED080B51EC100B50
:1014900000F02CFC94ED101B53EC112B00F098FE87
:1014A00007D294ED080B51EC100B00F01FFCC4E9BF
:1014B000100194ED180B84ED160B94ED1A0B84EDCE
:1014C000180BBDEC088B70BD80EC100B9FED060B6C
:1014D00080ED100B80ED160B80ED180B80ED1A0BD4
:1014E00080ED1C0B704700000000000000000000B1
:1014F00000B52DED0E8B9FEDFE9BB0EE497AF0EE20
:10150000697A9FEDFD8BB0EE494AF0EE694AB0EE84
:10151000486AF0EE686AB0EE485AF0EE685AB0EEEB
:10152000483AF0EE683AB0EE482AF0EE682AB0EE9B
:10153000481AF0EE681A9FEDF2ABB0EE4A0AF0EEF0
:101540006A0AF148FFF7C0FFEF48B0EE497AF0EEC3
:10155000697AB0EE486AF0EE686AB0EE485AF0EE8A
:10156000685AB0EE494AF0EE694AB0EE483AF0EEF9
:10157000683AB0EE482AF0EE682AB0EE481AF0EE6B
:10158000681AB0EE4A0AF0EE6A0AA030FFF79CFF34
:10159000B0EE497AF0EE697AB0EE486AF0EE686A29
:1015A000B0EE485AF0EE685AB0EE494AF0EE694A99
:1015B000B0EE483AF0EE683AB0EE482AF0EE682A0B
:1015C000B0EE481AF0EE681AB0EE4A0AF0EE6A0A77
:1015D000CE48FFF779FFCD48B0EE497AF0EE697A50
:1015E000B0EE486AF0EE686AB0EE485AF0EE685A1B
:1015F000B0EE494AF0EE694AB0EE483AF0EE683A89
:10160000B0EE482AF0EE682AB0EE481AF0EE681AFA
:10161000B0EE4A0AF0EE6A0AA030FFF755FF9FEDE0
:10162000BCABB0EE486AF0EE686AB0EE4A7AF0EE13
:101630006A7AB0EE485AF0EE685AB0EE4A4AF0EED6
:101640006A4AB0EE483AF0EE683AB0EE482AF0EE58
:10165000682A9FEDB11B9FEDB2CBB348B0EE4C0AA8
:10166000F0EE6C0AFFF730FFB0EE4A7AF0EE6A7ADD
:10167000B0EE486AF0EE686AB0EE485AF0EE685A8A
:10168000B0EE4A4AF0EE6A4AB0EE483AF0EE683AF6
:10169000B0EE482AF0EE682A9FEDA41BA248B0EEF7
:1016A0004C0AF0EE6C0AA030FFF70EFF9FEDA1ABE5
:1016B000B0EE486AF0EE686AB0EE4A7AF0EE6A7A06
:1016C000B0EE485AF0EE685AB0EE494AF0EE694A78
:1016D000B0EE483AF0EE683AB0EE482AF0EE682AEA
:1016E000B0EE481AF0EE681A9FED94BB9548B0EE44
:1016F0004B0AF0EE6B0AFFF7E7FE9248B0EE4A7A2B
:10170000F0EE6A7AB0EE486AF0EE686AB0EE485AD7
:10171000F0EE685AB0EE494AF0EE694AB0EE483A47
:10172000F0EE683AB0EE482AF0EE682AB0EE481AB9
:10173000F0EE681AB0EE4B0AF0EE6B0AA030FFF73D
:10174000C3FEB0EE4A7AF0EE6A7AB0EE486AF0EE86
:10175000686AB0EE485AF0EE685AB0EE494AF0EEC8
:10176000694AB0EE483AF0EE683AB0EE482AF0EE38
:10177000682AB0EE481AF0EE681AB0EE4B0AF0EEA6
:101780006B0A7148FFF7A0FE6F48B0EE4A7AF0EEA0
:101790006A7AB0EE486AF0EE686AB0EE485AF0EE47
:1017A000685AB0EE494AF0EE694AB0EE483AF0EEB7
:1017B000683AB0EE482AF0EE682AB0EE481AF0EE29
:1017C000681AB0EE4B0AF0EE6B0AA030FFF77CFE11
:1017D0009FED5E7BB0EE486AF0EE686A9FED5D5B60
:1017E0009FED5E4BB0EE483AF0EE683AB0EE482A14
:1017F000F0EE682AB0EE481AF0EE681A9FED590B29
:101800005A48FFF761FE9FED5A7BB0EE486AF0EE52
:10181000686AB0EE485AF0EE685A9FED57ABB0EEEA
:10182000483AF0EE683AB0EE4A4AF0EE6A4AB0EE54
:10183000482AF0EE682A9FED521B9FED530B544847
:10184000FFF742FE9FED537BB0EE486AF0EE686A08
:10185000B0EE485AF0EE685A9FED50DBB0EE483AD1
:10186000F0EE683AB0EE4D4AF0EE6D4AB0EE482A1E
:10187000F0EE682A9FED4B1B9FED4C0B4448A030C7
:10188000FFF722FE9FED4BEBB0EE486AF0EE686A80
:10189000B0EE4E7AF0EE6E7AB0EE485AF0EE685A3C
:1018A0009FED46BBB0EE483AF0EE683AB0EE4B4AD8
:1018B000F0EE6B4A9FED432B9FED441B9FED450BD4
:1018C0004648FFF701FEB0EE4B7AF0EE6B7AB0EED1
:1018D000486AF0EE686AB0EE485AF0EE685AB0EE28
:1018E0004A4AF0EE6A4AB0EE483AF0EE683A77E0DB
:1018F000000000000088C34000000000000000005D
:101900000000000000001440500000209001002062
:10191000000000000064C940F168E388B5F8143F96
:101920000000000000002240D0020020691D554D3B
:1019300010750F3F00000000005CBC40000000007C
:101940000000184010090020500A0020000000008C
:1019500040CCF340000000000000244000000000E4
:1019600080842E41000000000000F43F900B002016
:10197000000000FC83D7974100000000004CDD40D0
:101980000000000000003E400000000000406040F9
:1019900010040020000000007E842E4100000000A2
:1019A0000040CF40000000000000004000000000A8
:1019B00000002E40000000000058BB400000000066
:1019C0000094E1409A9999999999A93F3333333317
:1019D0003333C33F9A9999999999E93F500500206B
:1019E000B0EE482AF0EE682A9FED461B9FED470BAC
:1019F0004848FFF769FD4748B0EE4B7AF0EE6B7A46
:101A0000B0EE486AF0EE686AB0EE485AF0EE685AF6
:101A1000B0EE4D4AF0EE6D4AB0EE483AF0EE683A5C
:101A2000B0EE482AF0EE682A9FED3B1B9FED3C0B81
:101A3000A030FFF749FDB0EE4E7AF0EE6E7AB0EED0
:101A4000486AF0EE686AB0EE485AF0EE685AB0EEB6
:101A50004B4AF0EE6B4AB0EE483AF0EE683AB0EE20
:101A6000482AF0EE682A9FED301B9FED310B32487B
:101A7000FFF72AFD9FED317BB0EE486AF0EE686A11
:101A8000B0EE485AF0EE685AB0EE494AF0EE694AB4
:101A9000B0EE483AF0EE683AB0EE482AF0EE682A26
:101AA000B0EE481AF0EE681AB0EE4C0AF0EE6C0A8E
:101AB0002448FFF709FDB0EE4A7AF0EE6A7AB0EEFC
:101AC000486AF0EE686AB0EE485AF0EE685AB0EE36
:101AD0004A4AF0EE6A4AB0EE483AF0EE683AB0EEA2
:101AE000482AF0EE682AB0EE481AF0EE681ABDEC0B
:101AF0000E8B11489FED140BA0305DF804EBFFF73F
:101B0000E3BC000000000000000014C00000000062
:101B1000008049C0F00500209A9999999999B93F98
:101B200052B81E85EB51E03F9A9999999999B9BF9E
:101B3000000000000000F0BF30070020000080FF20
:101B400064CDCD4170080020CDCCCCCCCCCCFC3FBA
:101B500070477047FEF7BABF30B593B03021684682
:101B6000FEF70BFC14210CA8FEF707FC204800250B
:101B7000016841F080510160006800F080501190D0
:101B80001C48016841F4404101600068022400F4EF
:101B90004040119001200090000401908001CDE9A7
:101BA000064006200890B420CDE9090404200B90DB
:101BB0006846FFF71BF908B172B6FEE7FFF712F8A7
:101BC00008B172B6FEE70CA90F2081E831004FF48E
:101BD000A0500F904FF48050109005210CA8FFF7F3
:101BE00039F8002801D072B6FEE713B030BD00000E
:101BF00040380240007000400248016841F4700122
:101C00000160704788ED00E0FEE70907090E002833
:101C100004DB00F1E02080F80014704700F00F00B2
:101C200000F1E02080F8141D7047704700B58BB0BC
:101C300000200121CDE90601089100900190029059
:101C400003900590049069460548FEF7A3FC0448FC
:101C5000FEF7EAFD02210248FEF71BFC0BB000BDB7
:101C60002400002000F00300024900EB800001EB9B
:101C700040007047300C00202DED028BFEF72EFF48
:101C8000FFF76AFFFFF79EFAFFF77CFAFFF7CEFF38
:101C9000FFF72EFC134C144E0020FFF7E3FF054620
:101CA0006060206800F043F941EC180BB5F90200C0
:101CB00000F03DF941EC100B0121B0EE481AF0EEB6
:101CC000681A0948FFF7DCFA96ED100B51EC100B7F
:101CD00000F0FEF8002300B21A461946FEF7B2FBE8
:101CE000DAE70000000000205000002081F00041F1
:101CF000704780F00040704721F00041704720F0AD
:101D00000040704721F00042A2F16052B2F5801FFE
:101D100001F0004328BFD2F17F6C0BD95FEA001CB1
:101D200043EAC20242EB507018BF704728BF20F050
:101D300001007047B2F5801FBCBF184670474FEADC
:101D4000410C1CF5001F02D2084600F066BB70B5BE
:101D500000F0EAF900000089FFF7F6BF4FF00040FD
:101D6000A0F580007047000010B591EA030F48BF4E
:101D700083F0004300F16A82841A71EB030C05D2F0
:101D8000121943EB0C03001B61EB0C01DFF824E19B
:101D90004FEA1154A4EB135C1EEA430F18BF9EEAEE
:101DA000445F73D023EA0E03DCF1200E21EA0451D4
:101DB00043F4801332D322FA0CFE10EB0E0023FA08
:101DC0000CFE41EB0E01CCF1200E03FA0EFE10EBDF
:101DD0000E0051F10001B1F5801FCCF1200E32D27E
:101DE00001EB045112FA0EF2BDE8104058BF7047E3
:101DF000401C38BF5FEA420218BF7047002814BF7A
:101E000020F0010041F100014FEA410313F5001FEA
:101E100038BF7047A1F1C04100F0D4B9012A43EBAB
:101E20000302ACF1200CDCF11F0E32BF4FF0000EAC
:101E300023FA0CF310EB030041EB0451B4EB115FF8
:101E4000D0D0A1EB045101F5801149085FEA3000C0
:101E500001EB04510ED350F1000038BF12FA0EFE10
:101E600008D1BDE81040C9E7401C38BF5FEA420214
:101E7000CAD1C3E7BDE810404FEA410313F5001F84
:101E800038BF7047A1F1C04100F09CB99EEA445FA1
:101E900008D011EA5E0FBDE8104004BF01F0004118
:101EA00000207047BDE8104070B500F03DF900BF5C
:101EB00064FBBE3E0000E0FF491058BFC1F1404145
:101EC0005B1058BFC3F140438B42EFF30080704773
:101ED0004FEA41034FEA5353A3F58063D3F11E0346
:101EE000C8BFD3F1210C0CDD4FF0004242EAC12201
:101EF00042EA505232FA03FC8CEAE17CACEBE1702E
:101F00007047102BC4BF0020704703F5787CBCF1EC
:101F1000FF3F04D06FF0004282EA2100704770B5A5
:101F200000F002F94992248000207047F2E710F097
:101F3000004248BF4042B0FA80F310FA03F10AD0E1
:101F4000C3F11D0303F580634FEA415002EB0352D6
:101F500002EBD12170474FF00000704751EA030CAB
:101F600017D41CF5801F58BFBCF5801F00F10680F8
:101F7000994218BF704708BF9042704707D711F5C4
:101F8000801F58BF13F5801F19D4994270478942AA
:101F900070471CF5801F08D5BCF5801FF7D58B4214
:101FA00018BF704708BF824270474FF4001C1CEBFB
:101FB000410F38BF1CEB430F01D28B42704770B505
:101FC00000F0B2F8922449004FF000514FF08053D6
:101FD000FFF772BFDFF848C170B51CEA111E1EBFC3
:101FE0001CEA13159EEA0C0F95EA0C0F00F06F80A7
:101FF00081EA030423EA4C134EEAD47E21EA4C1111
:1020000041F4801143F48013AE44A1FB024CA0FBC9
:102010000365AEF17F7E361955EB0C05A1FB034C31
:102020004CF10003A0FB021C16EB0C06654153F1BA
:102030000003094218BF46F0010613F4007F0BD1DC
:102040004FEA03314FEA0530340341EA155140EAC3
:1020500016506FF003020AE04FEAC3214FEAC52091
:10206000F40241EA555140EA56506FF0020202EB89
:102070002E4201EB025585EACE710AD05FEA440C8C
:1020800018BF24F0004450F1000041F1000120EAA3
:10209000D47040F2FE7C624500D270BDA84214BFED
:1020A0004FF080444FF04044002E08BF0024BEF1A2
:1020B000806FA8BFA1F1C041BDE8704080F282806E
:1020C0004FF0000001F1C04101F0004170479EEA6D
:1020D0000C0F0CEA131518BF95EA0C0F06D04FF041
:1020E000000081EA030E0EF0004170BD00F01CF804
:1020F0008900013E00F007B800F009B84FEA430C30
:102100005FEA5C5C08D081EA030100F05BB84FEA4B
:10211000410C5FEA5C5CF6D14FF00000014970476A
:102120000000FF070000F87F0EF1020E2EF0030EF4
:102130005EF8046B364205D4012A43EB030515F51E
:10214000001F12D8012841EB010C1CF5001F0CD810
:102150000ED14FEAD17C15F5001F0CEB4C0C0CF1A5
:10216000020C08BF4CEBD37C04E04FF0080C01E0FC
:102170004FEAD37C0CEB4C0526FA05F606F0070671
:10218000B6F1040C06D20EEB860CBDE870404CF0A4
:10219000010C6047DFE80CF0090B02024FF0004130
:1021A0004FF00000A1F5002170BD1946104601282E
:1021B00051EB010418BFD4F5001484BF002001F0D6
:1021C000004170BD0808A0F500114FEA31017047C9
:1021D00053EA010C17D41CF5801F58BFBCF5801FB3
:1021E00000F106808B4218BF704708BF82427047DB
:1021F00007D713F5801F58BF11F5801F19D48B42E4
:1022000070479B4270471CF5801F08D5BCF5801FA6
:10221000F7D5994218BF704708BF904270474FF4F6
:10222000001C1CEB430F38BF1CEB410F01D299423D
:1022300070470FB40CBC03BCFFF7C1BE10B591EAE8
:10224000030F48BF83F000433FF596AD841A71EB4E
:10225000030C07D212198CF0004C43EB0C03001B4B
:1022600061EB0C01DFF8A4E14FEA1154A4EB135C1D
:102270001EEA430F18BF9EEA445F00F0B08023EAD5
:102280006E03524221EA0451C3EB6E0338BF5B1E5A
:10229000DCF1200E25D322FA0CFE10EB0E0043FADF
:1022A0000CFE41EB0E01CCF1200E03FA0EFE10EBFA
:1022B0000E0051F10001CCF1200E29D412FA0EF2D9
:1022C00001EB0451BDE8104058BF7047401C1CBFD3
:1022D000B2F1004F704700280CBF491C20F00100EC
:1022E000704712EB020E43EB030218BF4FF0010ED2
:1022F0004EEA4202ACF1200CDCF11E0E54D943FA36
:102300000CFE10EB0E0051F1FF31CCF11E0ED5D5B5
:102310000EF1010E12FA0EFE404141EB010101EBFC
:10232000445C5FEA5C5C10D910EBDE7001EB045199
:1023300038BFBEF1004FBDE8104018BF70470028FD
:102340000CBF491C20F00100704730D24FEAD42C5A
:1023500011F5001124F400641BD0B1FA81F20B3A9C
:10236000A41AA41ED2F12003914030FA03F31943BA
:10237000904001EBCC71002C01EB0451BDE8104002
:10238000A8BF704701F1C0414FF0000001F00041CB
:102390007047B0FA80F310FA03F100D110BDE41ACF
:1023A000173C4805C90AE4E701EB045110BD491088
:1023B00001EB0451BDE810404FEA300002E04FF05D
:1023C000000170474A0008BF0042F8D0B2F5001F74
:1023D00028BF704701F000414FF0000070479EEAAF
:1023E000445F07D011EA5E0FBDE8104004BF002132
:1023F00000207047BDE8104070B5FFF795FE00BFA4
:1024000040DFF63E83F00041104670470000E0FFD9
:102410004FF04070E1EE100A7047FF2141EAD050C2
:10242000C005704700000000000000000102030426
:1024300006070809542400080000002024000000BA
:10244000E80100087824000824000020CC120000D5
:10245000040200080000000000000000010000006D
:1024600010000000000000000024F4000000000044
:08247000000000000000000064
:04000005080001AD41
:00000001FF
