:020000040800F2
:10000000B80600204D0200088B110008D51000082A
:100010008911000843040008AD1400080000000026
:100020000000000000000000000000008F11000828
:1000300045040008000000008D110008911100081F
:1000400067020008670200086702000867020008EC
:1000500067020008670200086702000867020008DC
:1000600067020008670200086702000867020008CC
:1000700067020008670200086702000867020008BC
:1000800067020008670200086702000867020008AC
:10009000670200086702000867020008670200089C
:1000A000670200086702000867020008670200088C
:1000B000670200086702000867020008670200087C
:1000C000670200086702000867020008670200086C
:1000D000670200086702000867020008670200085C
:1000E000670200086702000867020008670200084C
:1000F000670200086702000867020008670200083C
:10010000670200086702000867020008670200082B
:10011000670200086702000867020008670200081B
:10012000670200086702000867020008670200080B
:1001300067020008670200086702000867020008FB
:1001400067020008670200086702000867020008EB
:1001500067020008670200086702000867020008DB
:1001600067020008670200086702000867020008CB
:10017000670200086702000867020008000000002C
:1001800067020008670200086702000867020008AB
:10019000670200086702000867020008670200089B
:1001A00000000000000000006702000800F002F8F4
:1001B00000F03CF80AA090E8000C82448344AAF1C5
:1001C0000107DA4501D100F031F8AFF2090EBAE8C3
:1001D0000F0013F0010F18BFFB1A43F0010318477B
:1001E0005013000070130000103A24BF78C878C183
:1001F000FAD8520724BF30C830C144BF04680C602D
:10020000704700000023002400250026103A28BF74
:1002100078C1FBD8520728BF30C148BF0B60704778
:100220001FB501F077F91FBD10B510BD00F0CFF874
:100230001146FFF7F5FF01F04BF900F0EDF803B4BC
:10024000FFF7F2FF03BC00F0F5F800000948804713
:1002500009480047FEE7FEE7FEE7FEE7FEE7FEE7A8
:10026000FEE7FEE7FEE7FEE704480549054A064BC0
:100270007047000035120008AD010008B8000020EA
:10028000B8060020B8020020B802002053EA020C91
:1002900000F069802DE9F04B4FF00006002B1FBFE6
:1002A000B3FA83F503FA05F424FA05F65E4012BFAB
:1002B0001643B2FA82F502FA05F4C5F120051EBF15
:1002C00022FA05FC44EA0C04203556EA044C4FEAB5
:1002D000144418BF641C4FF000084FF0000990420E
:1002E00071EB030C39D3002919BFB1FA81F701FA78
:1002F00007F6B0FA80F700FA07F6C7F120071EBF2D
:1003000020FA07FC46EA0C062037B6FBF4FCA7EB04
:100310000507103F07F01F0BCBF120060CFA0BFB73
:100320002CFA06F644BFB3460026202FA4BF5E4633
:100330004FF0000B5BEA060C08BF4FF0010B19EB06
:100340000B09ABFB027C48EB0608C01B06FB02CC8A
:100350000BFB03CC71EB0C01C1E70B460246414697
:100360004846BDE8F08B13B54FF000004FF0000198
:10037000AFF30080BDE81C4070474FF0000200B5AD
:10038000134694469646203922BFA0E80C50A0E8B8
:100390000C50B1F12001BFF4F7AF090728BFA0E866
:1003A0000C5048BF0CC05DF804EB890028BF40F832
:1003B000042B08BF704748BF20F8022B11F0804F74
:1003C00018BF00F8012B704770477047704775469B
:1003D00000F02CF8AE4605006946534620F00700B1
:1003E000854618B020B5FFF73FFFBDE820404FF02D
:1003F00000064FF000074FF000084FF0000B21F00F
:100400000701AC46ACE8C009ACE8C009ACE8C009DB
:10041000ACE8C0098D46704710B50446AFF30080C4
:100420002046BDE81040FFF70ABF000000487047B3
:100430005800002001491820ABBEFEE7260002004C
:100440007047FEE7704772B6FEE7000070B50446DD
:1004500000F028F90546601C02D0044800780444E6
:1004600000F020F9401BA042FAD370BD000000202C
:100470002DE9F84FDFF8F8A10022012403254FF001
:100480000F090AF1040BAAF1040E00BF0B6804FA6D
:1004900002F63340B34270D10F7907F00307012F02
:1004A00001D0022F16D187684FEA420805FA08FCEE
:1004B00027EA0C07D1F80CC00CFA08FC4CEA070C30
:1004C000C0F808C04768B7430E79C6F300169640D7
:1004D0003E4346600E79F643B6070AD0C7684FEA36
:1004E000420C05FA0CF6B7438E6806FA0CF63E434A
:1004F000C6600E7906F00306022E10D1D60800EB76
:100500008608D8F8206057074FEAD76C09FA0CF72D
:10051000BE430F6907FA0CF73743C8F82070066826
:100520004FEA420C05FA0CF7BE430F7907F00307B8
:1005300007FA0CF7374307604E6816F4403F1CD0AB
:100540004C4E376847F480473760366822F003071F
:1005500006F480460096484E07EB060CDCF8086867
:1005600097073F0F09FA07F826EA0806DFF80C811B
:10057000404503D14FF0000841E072E0DFF8008110
:10058000404502D14FF0010839E0DFF8F8804045DE
:1005900002D14FF0020832E0DFF8EC80404502D192
:1005A0004FF003082BE0DFF8E480404502D14FF024
:1005B000040824E0DFF8D880404502D14FF0050858
:1005C0001DE0DFF8D080404502D14FF0060816E06C
:1005D000DFF8C480404502D14FF007080FE0DFF894
:1005E000BC80404502D14FF0080808E0DFF8B08039
:1005F000404502D14FF0090801E04FF00A0808FA1F
:1006000007F848EA0608CCF80888DAF80060574688
:10061000D1F804C09E435FEACC2C00D51E433E6057
:10062000DBF800605F46D1F804C09E435FEA8C2C83
:1006300000D51E433E60DEF800607746D1F804C066
:100640009E435FEA8C3C00D51E433E60084F083F46
:100650003E68D1F804C09E435FEACC3C00D51E43FF
:100660003E60521C102AFFF411AFBDE8F88F000065
:10067000083C014044380240003001400000024084
:100680000004024000080240000C0240001002403A
:100690000014024000180240001C024000200240EA
:1006A00000240240014880687047000000000020DC
:1006B0000248816802781144816070470000002080
:1006C0000B4810B5016841F400710160016841F404
:1006D00080610160016841F480710160032000F0D5
:1006E00061F80F2000F006F800F024F8002010BD9B
:1006F000003C024070B50D4D04464FF47A712878E5
:10070000B1FBF0F00A490968B1FBF0F000F016FB0C
:1007100048B9102C07D200222146501E00F022F8C2
:1007200000206C6070BD012070BD00000000002042
:100730000C0000200A4808B5016841F480410160BE
:10074000006800F4804000900548001F016841F0F7
:1007500080510160006800F08050009008BD0000EA
:1007600044380240F0B40E4B1B680C46C3F302231E
:10077000C3F10705042D00D90425191D072901D24D
:10078000002300E0DB1E012606FA05F1491E214088
:1007900099409E40761E16403143F0BC00F087BE63
:1007A0000CED00E0064900F0070208684FF6FF0371
:1007B000184040EA0220034A1043086070470000D6
:1007C0000CED00E00000FA052DE9F8431748016838
:1007D00041F0805101600068154F00F08050012603
:1007E00000903E64FFF75EFF05464FF47A78114CA7
:1007F00005E000BFFFF756FF401B40450DD860687D
:10080000C003F7D57E64FFF74DFF0546464607E077
:10081000FFF748FF401BB04202D90320BDE8F88330
:1008200060688003F4D50020F8E7000040380240FB
:1008300000000E42007000402DE9F0470E46050012
:1008400065D0DFF81481D8F80000F7B200F00F008F
:10085000B04207D288F80070D8F8000000F00F000E
:10086000B04254D128683D4C810712D5400703D5CA
:10087000206840F4E05020602878000703D5206805
:1008800040F4604020602068A96820F0F000084330
:1008900020602878C0072DD03049686808390128C1
:1008A00012D0022813D0032811D009688907002923
:1008B0002DDA216821F0030101432160FFF7F2FEE8
:1008C000814641F2883A0EE009688903EFE709683A
:1008D0008901ECE7FFF7E6FEA0EB0901514502D9DB
:1008E0000320BDE8F0872068696800F00C00B0EBD9
:1008F000810FEFD1D8F80010404601F00F01B1424E
:1009000007D90770006800F00F00B04201D0012045
:10091000E7E72878400705D52068E96820F4E0502B
:10092000084320602878000706D52068296920F44C
:10093000604040EAC100206000F018F82168084AD1
:10094000C1F30311515CC8400649086006480068BD
:10095000FFF7D0FE0020C4E7003C02400838024008
:100960001E1500080C00002004000020154810B5DA
:10097000006810F00C02144813D01449042A0FD058
:10098000082A0ED10F4C241F2268236802F03F0270
:100990005B0207D52068C0F38810A0FB010106E0C8
:1009A000084610BD2168C1F38811A1FB0001002396
:1009B000FFF76CFC2168C1F30141491C4900B0FB01
:1009C000F1F010BD083802400024F400001BB7000D
:1009D0002DE9F84F04006ED02078DFF84C93C00763
:1009E000A9F104054AD009F104000168C1F38101AD
:1009F000012908D00068C0F3810002280AD1D9F883
:100A00000000400206D52868800337D560680028BA
:100A1000E1D033E06068B0F5803F10D0B0F5A02F92
:100A2000286810D020F480302860286820F48020C6
:100A300028606068A8B1FFF735FE06460DE028681B
:100A400040F48030F4E740F480202860F7E700BFEE
:100A5000FFF728FE801B642873D828688003F7D529
:100A60000CE0FFF71FFE064605E000BFFFF71AFE89
:100A7000801B6428F0D828688003F7D42078DFF83A
:100A8000AC8280074FF0000A3ED5A748001D0168E0
:100A900011F00C0F08D00068C0F3810002280BD1C0
:100AA000D9F80000400207D42868800716D5E0680E
:100AB000012800D112E033E1E068B8B10120C8F8A4
:100AC0000000FFF7EFFD064605E000BFFFF7EAFD77
:100AD000801B0228C0D828688007F7D528682169BC
:100AE00020F0F80040EAC10028600DE0C8F800A03E
:100AF000FFF7D8FD064604E0FFF7D4FD801B02286F
:100B00001FD828688007F7D42078000722D5864FA1
:100B100087486169703771B101210160FFF7C2FD3B
:100B2000064604E0FFF7BEFD801B022809D838689E
:100B30008007F7D50EE0C0F800A0FFF7B3FD06462A
:100B400005E082E0FFF7AEFD801B02287DD8386803
:100B50008007F7D42078400768D5DFF8CCB10027AC
:100B60000BF13C0BDBF80000C0000BD4DBF80010ED
:100B700041F08051CBF80010DBF80000012700F0B5
:100B8000805000906B4E3068C00510D4306840F43F
:100B900080703060FFF786FD009005E0FFF782FD72
:100BA0000099401A022850D83068C005F6D55E4E2C
:100BB000A0686C3601280FD00528306810D020F0CE
:100BC00001003060306820F004003060A068B8B1E7
:100BD000FFF768FD00900FE0306840F00100F4E797
:100BE00040F004003060F7E7FFF75CFD0099411A20
:100BF00041F28830814266D830688007F4D50EE033
:100C0000FFF750FD009007E0FFF74CFD0099411AF7
:100C100041F28830814256D830688007F4D42FB131
:100C2000DBF8001021F08051CBF80010A069C8B3A8
:100C30003D49091D0968C1F3810102294AD00228F2
:100C4000504607D0C8F8600000E03CE0FFF72AFDFE
:100C500004463BE04746C8F86000FFF723FD064620
:100C600005E000BFFFF71EFD801B02282BD8286877
:100C70008001F7D4D4E907010843A16A2E4A490844
:100C800002EB0141626A41EA8211084394F82C1098
:100C900040EA0161C9F8001001203866FFF702FD43
:100CA000044606E03EE000BFFFF7FCFC001B022804
:100CB00009D828688001F7D534E000BFFFF7F2FCBF
:100CC000001B022802D90320BDE8F88F28688001A4
:100CD000F4D427E00128F7D0D9F80000E26900F445
:100CE000800191421CD1226A00F03F01914217D14C
:100CF00047F6C071626A0140B1EB821F10D1A26A4F
:100D00004FF0FF3300F4403103EB5202B1EB024FDE
:100D100006D194F82C1000F07060B0EB016F01D098
:100D20000120D1E70020CFE704380240000047420D
:100D3000800E4742007000400000FFFF10B5401ECB
:100D4000B0F1807F01D3012010BD4FF0E02460613D
:100D50000F21601700F0ABFB0020A061072020618D
:100D6000002010BD70B590F83C20012A32D001243B
:100D700080F83C40022280F83D2003685A689D6854
:100D800022F070060A6832435A60134B02689A4296
:100D900014D0B2F1804F11D0104B9A420ED0104BAC
:100DA0009A420BD00F4B9A4208D00F4B9A4205D073
:100DB0000E4B9A4202D00E4B9A4204D1496825F05C
:100DC00080031943916080F83D40002180F83C1079
:100DD000084670BD022070BD0000014000040040C4
:100DE00000080040000C00400004014000400140A9
:100DF0000018004090F83D10012901D001207047F3
:100E0000022180F83D1000681149884214D0B0F1E9
:100E1000804F11D00F4988420ED00F4988420BD025
:100E20000E49884208D00E49884205D00D498842B3
:100E300002D00D49884204D1816801F007010629DA
:100E400003D0016841F001010160002070470000FB
:100E5000000001400004004000080040000C004079
:100E600000040140004001400018004010B586B069
:100E7000044614216846FFF780FA0D49206888422D
:100E800014D10C480021026842F4807202600068AC
:100E900000F480700590012000900220CDE901014E
:100EA000CDE9031069460448FFF7E2FA06B010BD29
:100EB000000C0040303802400020024070B504466B
:100EC00090F83C0000260D4601280FD0012084F840
:100ED0003C006AB1042A1DD0082A2FD00C2A3FD02A
:100EE0000126002084F83C00304670BD022070BD11
:100EF000206800F019FA2068816941F008018161D9
:100F00002068816921F004018161206881692A6972
:100F1000114311E0206800F037FA2068816941F43C
:100F2000006181612068816921F4806181612068AC
:100F300081692A6941EA02218161D2E7206800F0D3
:100F400059FA2068C16941F00801C1612068C1698E
:100F500021F00401C1612068C1692A69114311E0CF
:100F6000206800F07BFA2068C16941F40061C1612A
:100F70002068C16921F48061C1612068C1692A6962
:100F800041EA0221C161ACE710B5040003D094F836
:100F90003D0010B107E0012010BD002084F83C00A6
:100FA000204600F01FF8022084F83D00211D206833
:100FB00000F048F9012084F8460084F83E0084F8E7
:100FC0003F0084F8400084F8410084F8420084F82F
:100FD000430084F8440084F8450084F83D00002074
:100FE00010BD000008B500680649884208D10648CF
:100FF000016841F008010160006800F008000090FD
:1010000008BD0000000C00404038024010B5044606
:10101000022249B104290ED0082913D094F84100C6
:10102000012816D0012010BD94F83E000128F9D106
:1010300084F83E200FE094F83F000128F2D184F8B4
:101040003F2008E094F840000128EBD184F84020CC
:1010500001E084F841200122206800F057F9164988
:101060002068164A884201D0904203D1436C43F471
:10107000004343642068884213D0B0F1804F10D001
:101080000F4988420DD00F4988420AD00E49884244
:1010900007D0904205D00D49884202D00C498842C1
:1010A00004D1816801F00701062903D0016841F0ED
:1010B00001010160002010BD00000140000401405A
:1010C0000004004000080040000C004000400140C7
:1010D00000180040FEE700000D4808B5016841F027
:1010E00001010160016801F001010091016841F412
:1010F00080710160016801F480710091016841F024
:1011000080010160006800F08000009008BD0000D0
:101110003038024010B58AB0002407941C2168467C
:101120000894FFF72AF91748154901605921C0E9C9
:10113000011444F61F61C0E903148461FFF724FF22
:1011400008B1FFF780F9079407A90E480894FFF744
:1011500009FE08B1FFF777F9602000904FF4FA60BC
:10116000CDE901040C22694606480494FFF7A6FE67
:1011700008B1FFF768F90348FFF778FE0AB010BD21
:10118000000C004010000020FEE7FEE770477047AB
:10119000FFF78EBA30B593B030216846FFF7EDF80F
:1011A00014210CA8FFF7E9F820480025016841F058
:1011B00080510160006800F0805011901C48016867
:1011C00041F4404101600068022400F44040119065
:1011D00001200090000401908001CDE90640062026
:1011E0000890B420CDE9090404200B906846FFF76D
:1011F000EFFB08B172B6FEE7FFF7E6FA08B172B688
:10120000FEE70CA90F2081E831004FF4A0500F90A9
:101210004FF48050109005210CA8FFF70DFB00281B
:1012200001D072B6FEE713B030BD00004038024076
:10123000007000400248016841F47001016070478D
:1012400088ED00E0F0B50268254C264D264E274F6C
:10125000274B4FF0804CA04209D0604507D0A842F0
:1012600005D0B04203D0B84201D0984204D122F058
:10127000700E4A6842EA0E02A0421BD0604519D0A7
:10128000A84217D0B04215D0B84213D0984211D01E
:10129000184DA8420ED0184DA8420BD0174DA842A9
:1012A00008D0174DA84205D0164DA84202D0164DC1
:1012B000A84203D122F44075CA682A434D6922F03E
:1012C00080022A4302608A68C2620A688262A0427F
:1012D00001D0984201D10969016301214161F0BD4A
:1012E000000001400004004000080040000C0040E5
:1012F000000401400040014000440140004801401A
:1013000000180040001C00400020004010B501F013
:101310001F030121046A99408C430462016A9A40C8
:101320001143016210BD0000F0B5026A22F0010213
:101330000262036A42688469124E24F073050C68E5
:101340002C4323F002058B682B430D4DA84201D09E
:10135000B04205D123F00807CB683B4323F00403D8
:10136000A84201D0B04205D14D6922F44072154324
:101370008A692A4342608461496841630362F0BD1F
:101380000000014000040140F0B5026A22F01002A2
:101390000262026A436884690D6824F4E64444EA00
:1013A00005248D6822F0200242EA05120F4D104EEE
:1013B000A84201D0B04206D1CF6822F0800242EAB2
:1013C000071222F04002A84201D0B04207D14D6975
:1013D00023F4406343EA85038D6943EA8503436050
:1013E0008461496881630262F0BD00000000014031
:1013F00000040140F0B5026A22F480720262026ABF
:101400004368C46922F4007224F073050C68124E1C
:101410002C438D6842EA05220E4DA84201D0B0420D
:1014200006D1CF6822F4006242EA072222F48062E9
:10143000A84201D0B04207D14D6923F4405343EA9A
:1014400005138D6943EA05134360C4614968C163AC
:101450000262F0BD000001400004014030B5026AA4
:1014600022F480520262046A4268C3690D6823F460
:10147000E64343EA05238D6824F4005444EA053426
:10148000084DA84202D0084DA84204D14D6922F46B
:10149000804242EA85124260C36149680164046285
:1014A00030BD00000000014000040140FEE70907D4
:1014B000090E002804DB00F1E02080F800147047DA
:1014C00000F00F0000F1E02080F8141D70470000CC
:1014D000FFF7F6F8FFF75EFEFFF7FEFDFFF71AFED7
:1014E0000B48FFF787FC0C210948FFF78FFD4FF4ED
:1014F000FA75074EAF000124316805FB04F008645B
:101500003846FEF7A3FF641C052CF5DDF3E7000069
:10151000100000204FF04070E1EE100A704700000C
:101520000000000000000102030406070809000093
:10153000501500080000002010000000E80100081D
:101540006015000810000020A80600000402000832
:101550000100000010000000000000000024F40062
:04000005080001AD41
:00000001FF
