:020000040800F2
:10000000583700204D020008F31A000805140008B4
:10001000F11A000891040008AD200008000000005B
:100020000000000000000000000000008D1D00081E
:100030009304000800000000791C00088F1D0008D0
:1000400067020008670200086702000867020008EC
:1000500067020008670200086702000867020008DC
:1000600067020008670200086702000867020008CC
:1000700067020008670200086702000867020008BC
:1000800067020008670200086702000867020008AC
:10009000670200086702000867020008670200089C
:1000A000670200086702000867020008670200088C
:1000B000670200086702000867020008670200087C
:1000C000670200086702000867020008670200086C
:1000D000670200086702000867020008670200085C
:1000E000670200086702000867020008670200084C
:1000F000670200086702000867020008670200083C
:10010000670200086702000867020008670200082B
:10011000670200086702000867020008670200081B
:10012000670200086702000867020008670200080B
:1001300067020008670200086702000867020008FB
:1001400067020008670200086702000867020008EB
:1001500067020008670200086702000867020008DB
:1001600067020008670200086702000867020008CB
:10017000670200086702000867020008000000002C
:1001800067020008670200086702000867020008AB
:10019000670200086702000867020008670200089B
:1001A00000000000000000006702000800F002F8F4
:1001B00000F03CF80AA090E8000C82448344AAF1C5
:1001C0000107DA4501D100F031F8AFF2090EBAE8C3
:1001D0000F0013F0010F18BFFB1A43F0010318477B
:1001E000E03E0000003F0000103A24BF78C878C10C
:1001F000FAD8520724BF30C830C144BF04680C602D
:10020000704700000023002400250026103A28BF74
:1002100078C1FBD8520728BF30C148BF0B60704778
:100220001FB503F0A2FE1FBD10B510BD00F0E2F82F
:100230001146FFF7F5FF02F00DFF00F000F903B4DF
:10024000FFF7F2FF03BC00F003F900000948804704
:1002500009480047FEE7FEE7FEE7FEE7FEE7FEE7A8
:10026000FEE7FEE7FEE7FEE704480549054A064BC0
:1002700070470000351E0008AD010008583100200D
:1002800058370020583300205833002053EA020C1E
:1002900000F069802DE9F04B4FF00006002B1FBFE6
:1002A000B3FA83F503FA05F424FA05F65E4012BFAB
:1002B0001643B2FA82F502FA05F4C5F120051EBF15
:1002C00022FA05FC44EA0C04203556EA044C4FEAB5
:1002D000144418BF641C4FF000084FF0000990420E
:1002E00071EB030C39D3002919BFB1FA81F701FA78
:1002F00007F6B0FA80F700FA07F6C7F120071EBF2D
:1003000020FA07FC46EA0C062037B6FBF4FCA7EB04
:100310000507103F07F01F0BCBF120060CFA0BFB73
:100320002CFA06F644BFB3460026202FA4BF5E4633
:100330004FF0000B5BEA060C08BF4FF0010B19EB06
:100340000B09ABFB027C48EB0608C01B06FB02CC8A
:100350000BFB03CC71EB0C01C1E70B460246414697
:100360004846BDE8F08B13B54FF000004FF0000198
:10037000AFF30080BDE81C4070474FF0000200B5AD
:10038000134694469646203922BFA0E80C50A0E8B8
:100390000C50B1F12001BFF4F7AF090728BFA0E866
:1003A0000C5048BF0CC05DF804EB890028BF40F832
:1003B000042B08BF704748BF20F8022B11F0804F74
:1003C00018BF00F8012B704770477047704710B591
:1003D00000F008F8006810BD10B5044600F002F8FF
:1003E000046010BD00487047F4300020004870479A
:1003F000F43000207546FFF7F9FFAE460500694668
:10040000534620F00700854618B020B5FFF72CFFB3
:10041000BDE820404FF000064FF000074FF0000805
:100420004FF0000B21F00701AC46ACE8C009ACE886
:10043000C009ACE8C009ACE8C0098D46704710B5EA
:100440000446AFF300802046BDE81040FFF7F7BE3A
:1004500001491820ABBEFEE72600020070470000ED
:10046000B7EE000A80ED000A9FED040A80ED010A54
:1004700080ED020A80ED030A7047000000000000D2
:1004800093EC033AD2EC031A91EC030A01F094B80E
:10049000FEE7704772B6FEE770B5044600F02EF92D
:1004A0000546601C02D004480078044400F026F998
:1004B000401BA042FAD370BD000000202DE9F84F88
:1004C000DFF8F8A10022012403254FF00F090AF1FB
:1004D000040BAAF1040E00BF0B6804FA02F63340C5
:1004E000B34270D10F7907F00307012F01D0022F1B
:1004F00016D187684FEA420805FA08FC27EA0C077C
:10050000D1F80CC00CFA08FC4CEA070CC0F808C083
:100510004768B7430E79C6F3001696403E434660DF
:100520000E79F643B6070AD0C7684FEA420C05FABF
:100530000CF6B7438E6806FA0CF63E43C6600E7999
:1005400006F00306022E10D1D60800EB8608D8F874
:10055000206057074FEAD76C09FA0CF7BE430F69C2
:1005600007FA0CF73743C8F8207006684FEA420CC8
:1005700005FA0CF7BE430F7907F0030707FA0CF7EB
:10058000374307604E6816F4403F1CD04C4E376826
:1005900047F480473760366822F0030706F4804648
:1005A0000096484E07EB060CDCF8086897073F0FEB
:1005B00009FA07F826EA0806DFF80C81404503D15E
:1005C0004FF0000841E072E0DFF80081404502D1C1
:1005D0004FF0010839E0DFF8F880404502D14FF0D4
:1005E000020832E0DFF8EC80404502D14FF003080A
:1005F0002BE0DFF8E480404502D14FF0040824E00E
:10060000DFF8D880404502D14FF005081DE0DFF843
:10061000D080404502D14FF0060816E0DFF8C480D4
:10062000404502D14FF007080FE0DFF8BC8040459D
:1006300002D14FF0080808E0DFF8B080404502D151
:100640004FF0090801E04FF00A0808FA07F848EAF5
:100650000608CCF80888DAF800605746D1F804C0DC
:100660009E435FEACC2C00D51E433E60DBF8006061
:100670005F46D1F804C09E435FEA8C2C00D51E4330
:100680003E60DEF800607746D1F804C09E435FEA22
:100690008C3C00D51E433E60084F083F3E68D1F8B1
:1006A00004C09E435FEACC3C00D51E433E60521C12
:1006B000102AFFF411AFBDE8F88F0000083C01409C
:1006C0004438024000300140000002400004024073
:1006D00000080240000C02400010024000140240DA
:1006E00000180240001C024000200240002402408A
:1006F0000AB1816170470904FBE700000148806886
:100700007047000000000020024881680278114410
:1007100081607047000000200B4810B5016841F46B
:1007200000710160016841F480610160016841F479
:1007300080710160032000F061F80F2000F006F8DE
:1007400000F024F8002010BD003C024070B50D4DB3
:1007500004464FF47A712878B1FBF0F00A49096831
:10076000B1FBF0F000F09BFC48B9102C07D200223E
:100770002146501E00F022F800206C6070BD012060
:1007800070BD0000000000200C0000200A4808B5E1
:10079000016841F480410160006800F480400090ED
:1007A0000548001F016841F080510160006800F0B9
:1007B0008050009008BD000044380240F0B40E4B59
:1007C0001B680C46C3F30223C3F10705042D00D9AF
:1007D0000425191D072901D2002300E0DB1E012694
:1007E00006FA05F1491E214099409E40761E1640AA
:1007F0003143F0BC01F073BC0CED00E0064900F0A1
:10080000070208684FF6FF03184040EA0220034A37
:1008100010430860704700000CED00E00000FA058E
:100820002DE9F8431748016841F0805101600068E4
:10083000154F00F08050012600903E64FFF75EFFE8
:1008400005464FF47A78114C05E000BFFFF756FFDC
:10085000401B40450DD86068C003F7D57E64FFF7A4
:100860004DFF0546464607E0FFF748FF401BB042F4
:1008700002D90320BDE8F88360688003F4D5002026
:10088000F8E700004038024000000E4200700040CF
:100890002DE9F0470E46050065D0DFF81481D8F841
:1008A0000000F7B200F00F00B04207D288F80070E5
:1008B000D8F8000000F00F00B04254D128683D4C39
:1008C000810712D5400703D5206840F4E05020602E
:1008D0002878000703D5206840F460402060206835
:1008E000A96820F0F000084320602878C0072DD0C8
:1008F000304968680839012812D0022813D003282B
:1009000011D00968890700292DDA216821F0030137
:1009100001432160FFF7F2FE814641F2883A0EE082
:1009200009688903EFE709688901ECE7FFF7E6FE4C
:10093000A0EB0901514502D90320BDE8F0872068EA
:10094000696800F00C00B0EB810FEFD1D8F800100F
:10095000404601F00F01B14207D90770006800F06E
:100960000F00B04201D00120E7E72878400705D505
:100970002068E96820F4E0500843206028780007E8
:1009800006D52068296920F4604040EAC100206053
:1009900000F018F82168084AC1F30311515CC840FF
:1009A0000649086006480068FFF7D0FE0020C4E74B
:1009B000003C0240083802407E3F00080C00002046
:1009C00004000020154810B5006810F00C0214480F
:1009D00013D01449042A0FD0082A0ED10F4C241F1B
:1009E0002268236802F03F025B0207D52068C0F34B
:1009F0008810A0FB010106E0084610BD2168C1F384
:100A00008811A1FB00010023FFF740FC2168C1F31E
:100A10000141491C4900B0FBF1F010BD083802400B
:100A20000024F400001BB7002DE9F84F04006ED03D
:100A30002078DFF84C93C007A9F104054AD009F1EA
:100A400004000168C1F38101012908D00068C0F3E6
:100A5000810002280AD1D9F80000400206D5286892
:100A6000800337D560680028E1D033E06068B0F5D6
:100A7000803F10D0B0F5A02F286810D020F480302F
:100A80002860286820F4802028606068A8B1FFF7FB
:100A900035FE06460DE0286840F48030F4E740F467
:100AA00080202860F7E700BFFFF728FE801B64283E
:100AB00073D828688003F7D50CE0FFF71FFE0646C1
:100AC00005E000BFFFF71AFE801B6428F0D82868F5
:100AD0008003F7D42078DFF8AC8280074FF0000A5B
:100AE0003ED5A748001D016811F00C0F08D0006822
:100AF000C0F3810002280BD1D9F80000400207D4CE
:100B00002868800716D5E068012800D112E033E19B
:100B1000E068B8B10120C8F80000FFF7EFFD064615
:100B200005E000BFFFF7EAFD801B0228C0D8286857
:100B30008007F7D52868216920F0F80040EAC10055
:100B400028600DE0C8F800A0FFF7D8FD064604E0D5
:100B5000FFF7D4FD801B02281FD828688007F7D430
:100B60002078000722D5864F87486169703771B1B8
:100B700001210160FFF7C2FD064604E0FFF7BEFD5C
:100B8000801B022809D838688007F7D50EE0C0F826
:100B900000A0FFF7B3FD064605E082E0FFF7AEFDDB
:100BA000801B02287DD838688007F7D4207840075A
:100BB00068D5DFF8CCB100270BF13C0BDBF8000067
:100BC000C0000BD4DBF8001041F08051CBF80010CE
:100BD000DBF80000012700F0805000906B4E306879
:100BE000C00510D4306840F480703060FFF786FD97
:100BF000009005E0FFF782FD0099401A022850D8C6
:100C00003068C005F6D55E4EA0686C3601280FD05E
:100C10000528306810D020F001003060306820F0E6
:100C200004003060A068B8B1FFF768FD00900FE0E5
:100C3000306840F00100F4E740F004003060F7E76E
:100C4000FFF75CFD0099411A41F28830814266D875
:100C500030688007F4D50EE0FFF750FD009007E004
:100C6000FFF74CFD0099411A41F28830814256D875
:100C700030688007F4D42FB1DBF8001021F08051E8
:100C8000CBF80010A069C8B33D49091D0968C1F33C
:100C9000810102294AD00228504607D0C8F86000D6
:100CA00000E03CE0FFF72AFD04463BE04746C8F879
:100CB0006000FFF723FD064605E000BFFFF71EFDBD
:100CC000801B02282BD828688001F7D4D4E90701BB
:100CD0000843A16A2E4A490802EB0141626A41EACF
:100CE0008211084394F82C1040EA0161C9F8001001
:100CF00001203866FFF702FD044606E03EE000BF33
:100D0000FFF7FCFC001B022809D828688001F7D5F2
:100D100034E000BFFFF7F2FC001B022802D90320D9
:100D2000BDE8F88F28688001F4D427E00128F7D0C7
:100D3000D9F80000E26900F4800191421CD1226AD6
:100D400000F03F01914217D147F6C071626A01403D
:100D5000B1EB821F10D1A26A4FF0FF3300F4403193
:100D600003EB5202B1EB024F06D194F82C1000F0C5
:100D70007060B0EB016F01D00120D1E70020CFE718
:100D80000438024000004742800E47420070004095
:100D90000000FFFF70B5040009D0606A002540B173
:100DA00025616561A56294F8510040B10CE0012015
:100DB00070BD6068B0F5827FF4D0E561F2E784F839
:100DC0005050204600F044F8022084F8510020687A
:100DD000016821F040010160A088218900F482703F
:100DE00001F404410843A18901F400610843217C16
:100DF00001F002010843217D01F001010843218B2C
:100E000001F400710843217F01F03801084394F890
:100E1000201001F080010843218D01F400510843A6
:100E200021680860A069042101EA104094F82410A8
:100E300001F010010843216848602068C16921F46D
:100E40000061C1616565012084F85100002070BD1A
:100E500010B586B0044614216846FFF78EFA14498F
:100E60002068884221D113480021026842F4801290
:100E70000260006800F4801005900E481438026883
:100E800042F020020260006800F0200005904FF45C
:100E9000607000900220CDE901010320039005203D
:100EA000049069460448FFF709FB06B010BD000036
:100EB0000050014044380240001402402DE9F84F30
:100EC000044690F8500000270A9E1D4692468B4625
:100ED0004FF0010901280ED0012084F85000FFF7DF
:100EE0000DFC804694F85100616801280CD0B1F5E2
:100EF000827F07D102E00220BDE8F88FA16809B91E
:100F0000042801D00227C2E0BBF1000F27D0BAF1BC
:100F1000000F24D01DB394F85100042802D00520FE
:100F200084F8510000206065C4F838A0E587A587E3
:100F3000C4F830B0E586A586206460642068016846
:100F4000490603D4016841F040010160E068B0F552
:100F5000006F606805D0E8B3012D46D07FE001271F
:100F600095E008B1012D39D1206B21680088C86057
:100F7000206B801C2063E08E401EE0862EE02068FF
:100F8000816889070FD5E18E69B1B9F1010F0AD1E6
:100F9000216B0988C160206B801C2063E08E401E9D
:100FA000E0864FF0000920688168C9070CD0E18F06
:100FB00051B1C068A16B0880A06B801CA063E08F5A
:100FC000401EE0874FF00109FFF798FBA0EB0800F7
:100FD000B04200E009E001D3701C50D1E08E00283F
:100FE000CDD1E08F0028CAD13FE0206B2168007886
:100FF0000873206B401C2063E08E401EE0862EE0CC
:101000002068816889070FD5E18E69B1B9F1010FB8
:101010000AD1216B09780173206B401C2063E08E9C
:10102000401EE0864FF0000920688168C9070CD097
:10103000E18F51B1C068A16B0870A06B401CA06328
:10104000E08F401EE0874FF00109FFF757FBA0EB50
:101050000800B04202D3701C01D010E07EB1E08ED7
:101060000028CDD1E08F0028CAD142463146204623
:1010700000F004FE28B101272020606507E0032767
:1010800005E0A06818B92068C16880680090012058
:1010900084F85100002084F8500038462CE710B541
:1010A000401EB0F1807F01D3012010BD4FF0E0243D
:1010B00060610F21601701F012F80020A061072085
:1010C0002061002010BD10B5040003D094F83D004D
:1010D00010B107E0012010BD002084F83C0020463C
:1010E00000F01EF8022084F83D00211D206800F069
:1010F000A9FE012084F8460084F83E0084F83F00F1
:1011000084F8400084F8410084F8420084F84300E9
:1011100084F8440084F8450084F83D00002010BDA8
:1011200008B500680649884208D10648016841F4BC
:1011300000310160006800F40030009008BD00003C
:10114000004401404438024090F83D10012901D08C
:1011500001207047022180F83D1000681149884243
:1011600014D0B0F1804F11D00F4988420ED00F49F2
:1011700088420BD00E49884208D00E49884205D0DB
:101180000D49884202D00D49884204D1816801F09E
:101190000701062903D0016841F001010160002028
:1011A00070470000000001400004004000080040BB
:1011B000000C0040000401400040014000180040C5
:1011C00010B586B0044614216846FFF7D6F80E49DC
:1011D0002068884216D10D480021026842F00202C0
:1011E0000260006800F0020005904FF480700090EB
:1011F0000220CDE901010320CDE90310694604482E
:10120000FFF75CF906B010BD0044014030380240E1
:101210000004024070B5044690F83C0000260D46DC
:1012200001280FD0012084F83C006AB1042A1DD0A7
:10123000082A2FD00C2A3FD00126002084F83C0039
:10124000304670BD022070BD206800F06DFE206841
:10125000816941F0080181612068816921F0040100
:101260008161206881692A69114311E0206800F0DA
:101270008BFE2068816941F4006181612068816989
:1012800021F480618161206881692A6941EA022133
:101290008161D2E7206800F0ADFE2068C16941F0AD
:1012A0000801C1612068C16921F00401C1612068A1
:1012B000C1692A69114311E0206800F0CFFE20685F
:1012C000C16941F40061C1612068C16921F4806194
:1012D000C1612068C1692A6941EA0221C161ACE7A4
:1012E00010B5040003D094F83D0010B107E00120D0
:1012F00010BD002084F83C00204600F01EF80220BB
:1013000084F83D00211D206800F09CFD012084F838
:10131000460084F83E0084F83F0084F8400084F8DA
:10132000410084F8420084F8430084F8440084F8C3
:10133000450084F83D00002010BD704710B50446FC
:10134000022249B104290ED0082913D094F8410093
:10135000012816D0012010BD94F83E000128F9D1D3
:1013600084F83E200FE094F83F000128F2D184F881
:101370003F2008E094F840000128EBD184F8402099
:1013800001E084F841200122206800F0BFFD1649E9
:101390002068164A884201D0904203D1436C43F43E
:1013A000004343642068884213D0B0F1804F10D0CE
:1013B0000F4988420DD00F4988420AD00E49884211
:1013C00007D0904205D00D49884202D00C4988428E
:1013D00004D1816801F00701062903D0016841F0BA
:1013E00001010160002010BD000001400004014027
:1013F0000004004000080040000C00400040014094
:1014000000180040FEE700002DE9F04786B01421E7
:101410006846FEF7B2FF3B480025016841F0100125
:101420000160016801F010010591016841F00201BD
:101430000160016801F002010591016841F00101BC
:101440000160016801F001010591016841F080012E
:101450000160016801F080010591016841F02001FF
:1014600001600068DFF8A09000F0200005900122E4
:1014700004214846FFF73CF9DFF890A00122402103
:101480005046FFF735F94FF40067002239464846C9
:10149000FFF72EF94FF48048002241465046FFF7EF
:1014A00027F90820CDE90005012469460294484641
:1014B000FFF704F80420CDE900040326CDE9024635
:1014C00069464846FEF7FAFF4020CDE90004CDE921
:1014D000024669465046FEF7F1FF0097CDE9014507
:1014E000694648460395FEF7E9FFCDF80080CDE94F
:1014F0000145694650460395FEF7E0FF06B0BDE89A
:10150000F087000030380240001002400014024012
:101510000F4810B50D4901604FF482714160002100
:101520008160C1604FF400720161C0E90512C161C0
:101530000162416281620A21C162FFF72BFC00282F
:1015400003D0BDE81040FEF7A5BF10BD005001401C
:101550005000002010B588B01C216846FEF70DFF32
:10156000144813490024C0E9001441F28731C0E94E
:10157000024104618461FFF7A6FD08B1FEF78AFF0E
:101580000C48FFF7ADFE08B1FEF784FF6020CDE9FF
:10159000000402940022694606480494FFF73AFECC
:1015A00008B1FEF777FF0348FFF70AFE08B010BD49
:1015B00000440140A800002010B5B5EEC03A2DED62
:1015C000108BF0EE419AB0EE60AAF0EE40AAF1EE78
:1015D00010FA84B0044616D1F5EEC03AF1EE10FAD6
:1015E00011D1B5EEC04AF1EE10FA0CD104B0B0EE54
:1015F000691AF0EE4A0AB0EE6A0ABDEC108BBDE83B
:10160000104000F083B9F5EEC01AF1EE10FA09D1DE
:10161000B5EEC02AF1EE10FA04D1F5EEC02AF1EED3
:1016200010FA7CD021EEA10A02EE020A02EEA20A12
:1016300001F072FC21EE80FA62EE00EA22EE80EA0E
:1016400023EE030A03EEA30A04EE040A01F064FC8D
:10165000D4ED000A23EE009A63EE808A60EEA01AB1
:1016600024EE008AF0EE00FACDED031A94ED010AA3
:1016700094ED021AD4ED031A20EE80DA60EE81CAEE
:1016800020EEA12A61EE01DA60EE002A60EE010A86
:1016900020EE21CAB6EE000A21EEA1BA30EE6D0AA4
:1016A00061EE21BA3CEE2C1A70EE4B1ACDED021A07
:1016B00021EE890A70EEC21A70EE820ACDED011A8F
:1016C00008EEA10A60EE890A08EE010AB6EE001AD9
:1016D00071EE621A20EE2F0A31EECB1ACDED001A10
:1016E00020EE000A48EE810A3BEECD1A48EE010AD0
:1016F00060EEAF0A00EEA00A10EE100A02F0C4FB82
:1017000041EC100B01F018F951EC100B01F082FEC6
:101710003CEE6C0A00EE900A20EE091A00E08EE022
:101720007BEE8D1AF6EE002A3CEE8C4A3DEE2B2A1B
:1017300008EEA11ADDED001A704931EEED3ADDED4B
:10174000031A71EEE21A08EE031A71EE8B3ADDED20
:10175000021A21EE2F1A61EEA02ADDED011A61EEC8
:10176000A01A64EE200A41EE002A41EE021A41EE70
:10177000030A2EEEA31A0EEE421A28EEA03A2FEE1E
:10178000022A08EE613A0EEEC02A31EE031A2EEE5E
:10179000003A29EE210AD1ED011A0FEE633A68EE04
:1017A000223A08EEE20AF5EEC01A49EE603A32EE4D
:1017B000000A73EE230AF1EE10FA2CDDD1ED011AC6
:1017C00091ED022A61EE812ADFED4D1A02EEA12A87
:1017D00081ED022A91ED012A62EE202A91ED032A81
:1017E00002EEA12A81ED032A91ED012A62EE002A80
:1017F00091ED042A02EEA12A81ED042AD1ED021A0C
:101800007AEEA1AAD1ED031A3AEE21AAD1ED041A7B
:1018100079EEA19A07E0DFED3B1AC1ED021AC1EDA6
:10182000031AC1ED041AD1ED001A41EE81AA91ED1F
:10183000001A01EE20AAD1ED000A40EE809A9FED39
:10184000320A94ED011A94ED022A6AEE800A2AEE19
:10185000003A69EE802A94ED030A61EE603AD4ED15
:10186000001A42EE433A40EE623A73EEA14A61EE4C
:10187000A03AC4ED004A42EE223A40EE433A33EE3B
:10188000814A61EE833A61EEA21A84ED014A41EE8B
:10189000623A41EE031A40EE203A42EE601A73EECD
:1018A000823A71EE800A24EEA40AC4ED023AC4ED35
:1018B000030A04EE040A03EEA30A00EEA00A01F0F4
:1018C0002BFBD4ED000A60EE800AC4ED000AD4EDD3
:1018D000010A60EE800AC4ED010AD4ED020A60EE4E
:1018E000800AC4ED020AD4ED030A20EE800A84EDDA
:1018F000030A04B0BDEC108B10BD000010000020E6
:101900006F12833A000000006F12033AF5EEC01A1E
:10191000B0EE413AF0EE603AB0EE404AF1EE10FA25
:1019200000B5024609D1B5EEC02AF1EE10FA04D195
:10193000F5EEC02AF1EE10FA78D021EEA10A02EEFF
:10194000020A02EEA20A01F0E7FA21EE805A62EEE4
:10195000004A92ED011AD2ED030A22EE800AD2ED7E
:10196000002A21EE202AD2ED021A22EE811A5C48CA
:1019700002EEE12A01EEA01AF6EE001A52EEA21AC9
:1019800040EEA01A60EE020A64EEA12A45EE610A5A
:1019900040EE412A25EE010A90ED011A04EEC20A3A
:1019A000B5EEC01AF1EE10FA2CDD90ED011AD0ED73
:1019B000021A21EE222A9FED4B1A42EE011AC0EDC7
:1019C000021AD0ED011A21EEA02AD0ED031A42EE40
:1019D000011AC0ED031AD0ED011A21EE802AD0EDD4
:1019E000041A42EE011AC0ED041A90ED021A34EE08
:1019F000014A90ED031A73EE813A90ED041A33EE2A
:101A0000013A07E09FED381A80ED021A80ED031AC3
:101A100080ED041A90ED001A01EE224A90ED001AB2
:101A200041EE203AD0ED000A00EE803A9FED2F0AF9
:101A3000D2ED021A24EE002A63EE802A23EE001A69
:101A400092EC020A92ED033A60EEC23A41EEE23ABB
:101A500043EE413A73EE804A60EE023AC2ED004A2C
:101A600041EE813A43EE623A33EEA04A60EE223A0A
:101A700020EE010A82ED014A40EEC13A00EEA20AD0
:101A800043EE023A01EEC20A73EEA13A70EE030A87
:101A900024EEA40AC2ED023AC2ED030A04EE040ADF
:101AA00003EEA30A00EEA00A01F036FAD2ED000A16
:101AB00060EE800AC2ED000AD2ED010A60EE800AF3
:101AC000C2ED010AD2ED020A60EE800AC2ED020AFE
:101AD000D2ED030A20EE800A82ED030A00BD000069
:101AE000100000206F12833A000000006F12033ACA
:101AF000FEE7FEE7A0B1D0ED101AC0ED111A90ED8F
:101B00000F1A80ED101AC0ED060A80ED070A30EEBC
:101B1000C00A80ED0F0A017829B101293BD078E095
:101B20009FED3D0A7047D0ED010A60EE801AC0EDCE
:101B3000091AD0ED0A0A90ED022A42EE000A30EEB0
:101B4000410AC0ED0A0A90ED0D2A80ED0E2A90EDB3
:101B50000C2A80ED0D2A80ED0C0A90ED031A21EE7F
:101B6000001A80ED0B1A90ED050AF4EEC00AF1EEB2
:101B700010FA09DCB1EE400AF4EEC00AF1EE10FAF8
:101B800002D390ED0A0A01E080ED0A0A31EE800AE4
:101B900030EE010A2BE070EE410A90ED012A20EEB2
:101BA000822A80ED092AD0ED020A60EE800AC0ED9B
:101BB0000A0AD0ED0D2A72EE200AC0ED0E2AD0EDF1
:101BC0000C2AC0ED0D2AF0EE002A01EE620A30EE7A
:101BD000210A80ED0C0A90ED031A21EE000A80ED37
:101BE0000B0A30EE800AD0ED080A30EE200A80EDB4
:101BF000080AD0ED040AB4EEE00AF1EE10FA06DCB1
:101C0000F1EE600AB4EEE00AF1EE10FA01D2C0ED96
:101C1000080A90ED080A704700000000002828D04C
:101C2000002A26D0017092ED001A80ED011A92ED83
:101C3000011A80ED021A92ED021A80ED031A80ED6E
:101C4000040A9FED0C0AC0ED050A80ED0E0A80ED36
:101C50000D0A80ED0C0A80ED080A80ED0B0A80ED7C
:101C60000A0A80ED090A80ED110A80ED100A80ED64
:101C70000F0A7047000000007047000038B50446A6
:101C80001248134B0068B0FBF3F04FF47A735843DB
:101C900000906068B0F5827F0DD10B460092002263
:101CA0008021204600F016F870B1606D40F02000F1
:101CB0006065032038BD009830B1401E0090206858
:101CC0008068C0430006F6D5002038BD0C00002017
:101CD00000366E012DE9F8431E46914688460446BB
:101CE000089DFEF70BFD401B351AFEF707FD074662
:101CF00025480068C0F3CB30684338E0701C37D00B
:101D0000FEF7FCFCC01BA84203D215B1009860B3DB
:101D10002CE02068416821F0E00141606068B0F586
:101D2000827F0BD1A068B0F5004F02D0B0F5806F74
:101D300004D12068016821F040010160A06AB0F57B
:101D4000005F09D12068016821F40051016020681A
:101D5000016841F400510160012084F85100002025
:101D600084F850000320BDE8F8830025401E009051
:101D70002068816838EA010004D000214945BDD1BE
:101D80000020F0E70121F9E70C0000207047FEF782
:101D9000BBBC000030B593B030216846FEF7EDFAC9
:101DA00014210CA8FEF7E9FA20480025016841F04B
:101DB00080510160006800F0805011901C4801685B
:101DC00041F4404101600068022400F44040119059
:101DD00001200090000401908001CDE9064006201A
:101DE0000890B420CDE9090404200B906846FEF762
:101DF0001BFE08B172B6FEE7FEF712FD08B172B61F
:101E0000FEE70CA90F2081E831004FF4A0500F909D
:101E10004FF48050109005210CA8FEF739FD0028E2
:101E200001D072B6FEE713B030BD0000403802406A
:101E3000007000400248016841F470010160704781
:101E400088ED00E0F0B50268254C264D264E274F60
:101E5000274B4FF0804CA04209D0604507D0A842E4
:101E600005D0B04203D0B84201D0984204D122F04C
:101E7000700E4A6842EA0E02A0421BD0604519D09B
:101E8000A84217D0B04215D0B84213D0984211D012
:101E9000184DA8420ED0184DA8420BD0174DA8429D
:101EA00008D0174DA84205D0164DA84202D0164DB5
:101EB000A84203D122F44075CA682A434D6922F032
:101EC00080022A4302608A68C2620A688262A04273
:101ED00001D0984201D10969016301214161F0BD3E
:101EE000000001400004004000080040000C0040D9
:101EF000000401400040014000440140004801400E
:101F000000180040001C00400020004010B501F007
:101F10001F030121046A99408C430462016A9A40BC
:101F20001143016210BD0000F0B5026A22F0010207
:101F30000262036A42688469124E24F073050C68D9
:101F40002C4323F002058B682B430D4DA84201D092
:101F5000B04205D123F00807CB683B4323F00403CC
:101F6000A84201D0B04205D14D6922F44072154318
:101F70008A692A4342608461496841630362F0BD13
:101F80000000014000040140F0B5026A22F0100296
:101F90000262026A436884690D6824F4E64444EAF4
:101FA00005248D6822F0200242EA05120F4D104EE2
:101FB000A84201D0B04206D1CF6822F0800242EAA6
:101FC000071222F04002A84201D0B04207D14D6969
:101FD00023F4406343EA85038D6943EA8503436044
:101FE0008461496881630262F0BD00000000014025
:101FF00000040140F0B5026A22F480720262026AB3
:102000004368C46922F4007224F073050C68124E10
:102010002C438D6842EA05220E4DA84201D0B04201
:1020200006D1CF6822F4006242EA072222F48062DD
:10203000A84201D0B04207D14D6923F4405343EA8E
:1020400005138D6943EA05134360C4614968C163A0
:102050000262F0BD000001400004014030B5026A98
:1020600022F480520262046A4268C3690D6823F454
:10207000E64343EA05238D6824F4005444EA05341A
:10208000084DA84202D0084DA84204D14D6922F45F
:10209000804242EA85124260C36149680164046279
:1020A00030BD00000000014000040140FEE703B421
:1020B00001984100009850EAC12018BF04204A0D41
:1020C00018BF40F0010040F2FF72B2EB515F08BF51
:1020D00040F00200012808BF052002B07047090740
:1020E000090E002804DB00F1E02080F8001470479E
:1020F00000F00F0000F1E02080F8141D7047000090
:1021000070B5C1482DED020B2DED0E8B82B0119DE7
:1021100025F000449FEDBEDB9FEDBFEB84423EDB2C
:10212000A4F140511098A1F17F6108430FD0BC4841
:10213000844202DC28D1109830B39DED100B02B020
:10214000BDEC0E8B02B0BDE8704000F0AEBC9DED62
:10215000100B53EC1D2B51EC100B01F0D5FB9DED3A
:10216000100B41EC180B53EC1E2B51EC100B01F033
:10217000CBFB53EC182B01F07FF941EC100B02B0B4
:10218000BDEC0E8B02B070BD0120FEF725F902B048
:10219000BDEC0E8B02B0BDE8704000F09DBCA148C4
:1021A0009FEDA18B844256DA9DED100BB4F1795F5F
:1021B0000ADA51EC100BFFF77AFF042808BF00F091
:1021C0009BFC9DED100BDAE753EC102B51EC100B40
:1021D00001F09AFB41EC190B95480621B0EE490A33
:1021E000F0EE690A784400F0E4FB53EC192B51EC53
:1021F000100B01F089FB41EC1A0B8E48B0EE490A36
:10220000F0EE690A0421784400F0D3FB53EC192B5B
:1022100051EC100B01F078FB53EC182B01F02CF96A
:1022200041EC100B51EC1A0B53EC102B01F0D8F9C8
:10223000CDE900019DED000B53EC102B9DED100B33
:1022400051EC100B01F060FB9DED101B53EC112BBA
:1022500001F012F9D2E09DED100B51EC100B00F0E3
:1022600063FC53EC182B01F04DFC9FED730BCDE993
:10227000000153EC102B9DED000B51EC100B01F005
:1022800043FB41EC190B6E480621B0EE490AF0EE13
:10229000690A784400F08DFB53EC192B51EC100BBC
:1022A00001F032FB41EC1B0B6648B0EE490AF0EE40
:1022B000690A0421784400F07CFB53EC192B51ECA3
:1022C000100B01F021FB53EC182B01F0D5F841EC79
:1022D0001C0B51EC190B01F042F841EC180B5A4859
:1022E0009FED5BABA04222DC53EC1C2B51EC1B0B93
:1022F00001F076F9CDE900019DED000B51EC180BD2
:1023000053EC102B01F000FB53EC182B01F0B4F848
:1023100053EC1A2B01F0F8FA53EC1D2B01F0CAFC18
:1023200053EC1E2B01F0EEFB41EC100B5FE08DED4A
:10233000008B002000909DED000B51EC180B53EC2E
:10234000102B01F099F89DED000B41EC1E0B53ECA6
:10235000102B51EC100B01F0D7FA53EC192B01F0B4
:10236000D1FB53EC1E2B01F03BF941EC190B53EC64
:102370001C2B51EC1B0B01F033F941EC1B0B53EC04
:102380001A2B51EC190B01F0BFFA53EC1D2B01F085
:10239000B9FB41EC190B53EC1A2B51EC180B01F063
:1023A000B3FA53EC1B2B01F0AFFA53EC192B01F0ED
:1023B00081FC9DED000B41EC180B53EC1A2B51ECFA
:1023C000100B01F0A1FA9FED249B53EC192B01F0A7
:1023D00099FB41EC100B51EC180B53EC102B01F056
:1023E00069FC53EC192B01F08DFB41EC100B002D17
:1023F0003FF7C5AE51EC100B01F000F841EC100BAB
:10240000BDE60000000000000000F03F00000000FA
:10241000075C143326A6913C182D4454FB21F93F48
:102420000000F07F0000E03F000000000000F03FEF
:10243000E81D0000F61D0000000000000000E03F65
:102440003A1D0000481D00003333EF3F000000003C
:102450000000000000000040182D4454FB21E93F1B
:1024600070B59B482DED020B2DED068B079D25F0D9
:102470000044A04218DC9748844202DC0AD1069846
:1024800040B19DED060BBDEC068B02B0BDE870407F
:1024900000F00BBB002DCCBF9FED8F0B9FED900B81
:1024A000BDEC068B02B070BD8F48A04215DD8F4891
:1024B000A042D8BF4FF0FF3458DD9DED060B51EC24
:1024C000100BFFF7F4FD042808BF00F015FB9DED8D
:1024D000060BBDEC068B02B070BD9DED060B51ECFA
:1024E000100B00F021FBCDE9060181489FED828BA6
:1024F000A0423CDD8248A0421FDD00249FED82AB5C
:102500009DED060B53EC1A2B51EC100B00F0B4FFB1
:102510009DED060B41EC190B53EC1A2B51EC100BF3
:1025200001F0F2F953EC182B01F0C4FB53EC192B1A
:1025300001F056F8CDE9060149E09DED060B0124B6
:1025400053EC182B51EC100B00F096FF9DED060B91
:1025500041EC190B53EC182B51EC100B01F0AAFBBA
:1025600053EC192B01F03CF8CDE906012FE0684847
:10257000A0421FDD02249FED689B9DED060B53ECEE
:10258000192B51EC100B01F0BFF953EC182B00F094
:1025900073FF9DED060B41EC180B53EC192B51EC1E
:1025A000100B01F087FB53EC182B01F019F8CDE963
:1025B00006010CE09DED060B032453EC102B9FED60
:1025C000580B51EC100B01F00BF8CDE906019DED15
:1025D000060B53EC102B51EC100B01F095F941EC6C
:1025E000180B53EC182B01F08FF941EC190B4E48E6
:1025F0000621B0EE490AF0EE690A784400F0D9F9F4
:1026000053EC182B51EC100B01F07EF941EC180B38
:102610004648B0EE490AF0EE690A0521784400F018
:10262000C8F953EC192B51EC100B01F06DF941EC8A
:10263000100B51EC180B53EC102B002C0EDA00F0A1
:102640001BFF9DED061B53EC112B01F05DF99DED79
:10265000061B53EC112B01F055FA35E000F00CFF8E
:102660009DED061B53EC112B01F04EF941EC100BC4
:102670002F48784400EBC40090ED001B51EC100B88
:1026800053EC112B01F016FB9DED061B53EC112BA7
:1026900001F010FB41EC100B2648784400EBC4001D
:1026A00090ED001B51EC100B53EC112B01F02AFAAA
:1026B00041EC100B002DA2BFBDEC068B02B070BD2B
:1026C00051EC100B00F09AFE41EC100B01E70000FA
:1026D000000010440000F07F182D4454FB21F93F06
:1026E000182D4454FB21F9BF0000DC3F0000203EC0
:1026F0000000F33F00000000000000000000F03F79
:102700000000E63F00000000000000000000004064
:102710000080034000000000000000000000F83FBF
:10272000000000000000F0BF8A1A0000401A0000FC
:10273000CA1900008219000070B56F4E2DED040B10
:102740002DED048B82B0DDF824C0DDE907235C4267
:102750002CF000411C4341EAD474069D22F0004055
:10276000B44205D86C422C4340EAD474B4420BD92D
:102770009DED081B9DED060B02B0BDEC048B04B073
:10278000BDE8704000F09BB9ACF14054A4F17F6407
:102790001C430BD0022404EAAC7444EAD27405430F
:1027A0009FED578B9FED582B07D015E09DED060B45
:1027B00051EC100B00F0B0F942E0002C11BF012CDD
:1027C0009DED060B02B0BDEC048B04BF04B070BDE0
:1027D000022C38D0032C3BD00B439FED4D1B9FEDBB
:1027E0004E0B0AD0B14218D1B04209D121F080413C
:1027F00020F08040099107900FE0002A15DA10E0E0
:10280000474B7B44002C08BF93ED000B0DD0012CEF
:1028100010D0022C17D0032C1AD0B0421DD1002AA0
:1028200003DAB0EE410AF0EE610A02B0BDEC048BAF
:1028300004B070BD93ED000B51EC100B00F0DEFD09
:1028400041EC100BF1E7B0EE480AF0EE680AECE755
:10285000B0EE420AF0EE620AE7E7401A00159FED7B
:10286000329B3C28C8BF8DED000B17DCBCF1000F7C
:10287000BCBF10F13C0F8DED009B0FDB9DED080BF5
:1028800053EC102B9DED060B51EC100B00F0A8FE45
:1028900000F04AF900F040F9CDE90001B4B1012C93
:1028A00010D0022C9FED220B53EC102B9DED000B52
:1028B00051EC100B19D001F0FDF953EC182B01F07D
:1028C000F9F9BDE7019880F0004001909DED000B03
:1028D00053EC192B51EC100B00F0DAFF04BF02206F
:1028E000FDF77AFD9DED000B9FE701F0E3F953EC56
:1028F000182B01F007F9A3E70000F07F00000000AB
:10290000182D4454FB210940182D4454FB2109C0C3
:10291000182D4454FB21F9BF182D4454FB21F93FD5
:10292000B2180000000000000000000000000000DD
:10293000075C143326A6A13C00B52DED048BB0EE48
:10294000409AF0EE609A83B051EC190B01F0E6F872
:1029500041EC180B18EE100A18EE901A8DED008B52
:10296000002818BF0120084320F00040C0F17F601C
:1029700000F1E040C00F14D019EE101A19EE900AC1
:102980008DED009B002918BF0121084320F0004075
:10299000C0F17F6000F1E040C00F04BF0120FDF7EF
:1029A0001BFDB0EE480A03B0F0EE680ABDEC048BE4
:1029B00000BD70B504462DED028B4D1E00EBC50029
:1029C000B0EE408AF0EE608A90ED000B35F0060024
:1029D00017D053EC182B51EC100B00F095FF41EC85
:1029E000100B6D1E04EBC50090ED001B51EC100B9D
:1029F00053EC112B00F040FD41EC100B35F00600BC
:102A0000E7D1022D36D0042D1CD0062D1CBFBDEC05
:102A1000028B70BD53EC182B51EC100B00F074FFBF
:102A200094ED0A1B53EC112B00F026FD53EC182BF0
:102A300000F06AFF94ED081B53EC112B00F01CFD15
:102A400041EC100B53EC182B51EC100B00F05CFF19
:102A500094ED061B53EC112B00F00EFD53EC182BDC
:102A600000F052FF94ED040B53EC102B00F004FD2A
:102A700041EC100B53EC182B51EC100B00F044FF01
:102A800094ED021B53EC112B00F0F6FC53EC182BC9
:102A900000F03AFF94ED001B53EC112B00F0ECFC1E
:102AA000BDEC028B41EC100B70BD10B553EC102B3C
:102AB00051EC100B00F0E0FC41EC100B10BD10B518
:102AC00053EC112B51EC100B00F0D6FC41EC100B29
:102AD00010BD0000000000009FED050B10B553EC89
:102AE000102B51EC100B00F07BFD41EC100B10BDD6
:102AF00000000000000000009FED050B10B553EC36
:102B0000102B51EC100B00F0FFFE41EC100B10BD30
:102B1000000000000000001010B541EC100BFFF7A2
:102B20009FFC51EC100B10BD82B0CDE9000121F0EB
:102B3000004001909DED000B02B051EC100B70476E
:102B40002DE9F04104462DED0A8BB8EE009AB0EE67
:102B5000008A1D4616460F4690ED010AD0ED030A85
:102B600090ED021A20EE090A20EE200AD0ED000AAC
:102B700060EE880A00EE810A10EE100A01F084F976
:102B800041EC100BFFF7BCFA9FED3AAB51EC100B88
:102B900053EC1A2B00F0B8FE00F03CFC3060D4ED92
:102BA000018A28EE890A60EE280A94ED020A20EED6
:102BB00008BA4BEE400AB7EE000A30EE800A10EE7B
:102BC000100A01F061F994ED030AD4ED000A41EC1A
:102BD000190B2BEE000A60EE880A00EEA80A10EE30
:102BE000100A01F051F941EC100BB0EE491AF0EE69
:102BF000691AFFF7A1FD53EC1A2B51EC100B00F0F2
:102C000083FE00F007FC286094ED00CAD4ED018A31
:102C100094ED029A2CEE0C0AD4ED039A08EEA80A61
:102C200009EE490A09EEE90A10EE100A01F02CF942
:102C300028EE890A41EC1B0B0CEE290A20EE080A4B
:102C400010EE100A01F020F941EC100BB0EE4B1A17
:102C5000F0EE6B1AFFF770FD53EC1A2B51EC100BD2
:102C600000F052FE00F0D6FB3860BDEC0A8BBDE8E8
:102C7000F08100006666666666A64C4010B5254881
:102C8000FEF762FA00212348FEF758FB00F01AFA1B
:102C90000028FBD100F0A0F90028FBD1204ADFED8D
:102CA0001E0A9FED1E0A00211E48FEF7B7FF1E4AAE
:102CB0001E48A2F10C01FDF7D3FB1C4B1B48183337
:102CC0001A1F111FFFF73CFF174818490C38343101
:102CD00090ED000AA1F10C0281ED000AA1F11803A8
:102CE00082ED000A83ED000A90ED010A81ED010AF0
:102CF00082ED010A83ED010A90ED020A012081EDC7
:102D0000020A094982ED020A203983ED020A08709D
:102D100010BD0000A80000200080894500A08C455F
:102D2000C43F00089430002044000020F000002040
:102D300001490860704700003444014010B54D4817
:102D400000F05EFA4B480C3000F01AFA4948001FB8
:102D500000F0C0FA474890ED000ADFED470A30EE78
:102D6000600A80ED000A90ED010ADFED440A30EEC2
:102D7000600A80ED010A90ED020ADFED410A0023AE
:102D800030EE600ADFED3F0A80ED020A0C3090ED74
:102D9000000A30EE600ADFED3C0A30EE203ADFED4B
:102DA0003B0A80ED003A90ED010A30EE600ADFED5B
:102DB000380A70EE201ADFED370AC0ED011A90EDE7
:102DC000020A30EE600ADFED340A30EE200ADFED51
:102DD000330A70EE602A9FED330AC0ED022A3048B4
:102DE000A0F10C0290ED001A00F10C0182ED001A26
:102DF000D1ED000AC0ED000A20EE802ADFED2A0A9C
:102E000001EE202A9FED291A03EE012A81ED002A06
:102E100090ED013A82ED013A91ED012A80ED012A0F
:102E200022EE002A03EE202A01EE812A81ED012AFA
:102E3000D0ED021AC2ED021A91ED022A0A4680ED87
:102E4000022A22EE000A283801EEA00A02EE810AC8
:102E500081ED020A07499FED160AFDF711FB104BA1
:102E6000BDE81040103B1A1F111FA1F11000FFF721
:102E700067BE00002C0000200C6188BD1739C83BDC
:102E8000B611FABCE5D022BEB6F37D3EAE47813E18
:102E9000D9CEF73D608F823E8FC2F53CCDCC1C4130
:102EA000180100205AF8F63F5D896EBFD5A9183B7E
:102EB0006F12833A134810B590ED010A124910EED3
:102EC000100A124C884204DA94ED040A84ED080AD0
:102ED00006E0DFED0F0A0D48FEF70CFE94ED080A40
:102EE000B5EEC00AF1EE10FA03D29FED0A0A84EDA6
:102EF000080ABCEEC00ABDE8104010EE100A80B20D
:102F0000FFF716BF2400002000002042943000206C
:102F1000000020420000000010EE100AF6EE000A49
:102F2000074960EE200AA1EB600000EE100A20EED7
:102F3000801AF7EE080A41EE400A20EE800A704738
:102F4000DF59375F7047000008B509A103220968FF
:102F500000918DF801006946252000F0D9F94FF461
:102F6000FA6000F040FA492000F0A4F908BD000022
:102F70008E00810008B506A2126800928DF801004B
:102F80008DF8021004226946312000F0C1F908BD15
:102F90000E000080012204210148FDF7A9BB0000BA
:102FA00000100240002204210148FDF7A1BB0000EF
:102FB0000010024008B504A0032200680090694692
:102FC000252000F0A5F908BD8E028800704700F0AA
:102FD000FDB900F008BA00002DE9F0410024FFF728
:102FE000B1FFFFF7F3FFFFF7DDFF3220FFF7EFFF41
:102FF0003220FFF7ECFFFFF7CDFF0020FFF7A4FF23
:10300000102802D04020BDE8F081114D04EB4406A9
:103010007719A85D7978FFF7ADFF9620FFF7D9FF04
:10302000A85DFFF791FF06469620FFF7D2FF78785C
:10303000B04204D004EB440028448078E3E7641CE9
:10304000E4B2042CE2D3FFF7B5FF0020DBE7000079
:103050008E3F0008FDF760FBFEF79CFEFEF7D4F9FB
:10306000FEF756FAFEF776FAFFF708FEFFF766FE60
:10307000FFF720FF0120FDF70FFAF7E77047000088
:10308000012240210148FDF733BB0000001402403B
:10309000002240210148FDF72BBB00000014024034
:1030A00001B582B04FF47A700090012301AA02A901
:1030B0000248FDF703FF9DF804000EBD50000020FC
:1030C000704700002DE9F0414FF0960832250024AA
:1030D000FFF7D4FFFFF7F4FF752000F0EBF8404650
:1030E00000F04AF8752000F0E5F8404600F044F89A
:1030F00080216B2000F024F9284600F03BF8752071
:1031000000F0D8F8404600F037F8752000F0D2F80B
:10311000404600F031F8752000F0CCF805464046F6
:1031200000F02AF8702D02D08020BDE8F081104D0B
:1031300004EB44067719A85D797800F001F9404660
:1031400000F01AF8A85D00F0B5F80646404600F019
:1031500013F87878B04204D004EB44002844807817
:10316000E3E7641CE4B20E2CE2D30020DDE70000AC
:103170009A3F000800F02AB980B200F034B900008C
:103180001CB50446062269463B2000F079F89DF8FC
:1031900000009DF80110000200B2084320F02F004B
:1031A00000EE100AF8EEC00A9FED140A60EE800AE5
:1031B000C4ED000A9DF802009DF80310000200B261
:1031C000084320F02F0000EE900AF8EEE00A60EECF
:1031D000800AC4ED010A9DF804009DF80510000264
:1031E00000B2084320F02F0000EE900AF8EEE00A4B
:1031F00020EE800A84ED020A1CBD0000CDCC1C3AF2
:103200001CB5044606226946432000F039F89DF8B3
:1032100000009DF80110000200B2084320F02F00CA
:1032200000EE100AF8EEC00A9FED140A60EE800A64
:10323000C4ED000A9DF802009DF80310000200B2E0
:10324000084320F02F0000EE900AF8EEE00A60EE4E
:10325000800AC4ED010A9DF804009DF805100002E3
:1032600000B2084320F02F0000EE900AF8EEE00ACA
:1032700020EE800A84ED020A1CBD000058A00B3A23
:1032800070B516460D460446FFF702FF44F0800075
:10329000FFF706FF56B1002406E0FF20FFF700FF0E
:1032A000641C05F8010BE4B2B442F6D3BDE87040EB
:1032B000FFF7E6BE10B50446FFF7EAFE44F08000D3
:1032C000FFF7EEFEFF20FFF7EBFE0446FFF7D8FE08
:1032D000204610BD38B50446022269464120FFF75A
:1032E000CFFF9DF800009FED091A000201B29DF882
:1032F0000100014300EE101AF8EEC00AB3EE070A0F
:1033000000EE810A84ED000A38BD00006F12033B15
:1033100070B516460D460446FFF7BAFE2046FFF785
:10332000BFFE4EB1002405E02878FFF7B9FE641C0B
:10333000E4B26D1CB442F7D3BDE87040FFF7A0BE05
:1033400070B50D460446FFF7A3FE2046FFF7A8FE22
:103350002846FFF7A5FEBDE87040FFF791BE00B517
:103360002DED048B83B041EC190B00F0D7FB41EC41
:10337000180B18EE100A18EE901A8DED008B00282D
:1033800018BF0120084320F00040C0F17F6000F129
:10339000E040C00F14D019EE101A19EE900A8DED0E
:1033A000009B002918BF0121084320F00040C0F114
:1033B0007F6000F1E040C00F04BF0120FDF70CF872
:1033C00051EC180B03B0BDEC048B00BD00B50246F8
:1033D0004FF47A7304E0184600F005F8521E92B2DA
:1033E000002AF8D100BD06E03221491E11F0FF018C
:1033F000FBD1401E80B20028F6D1704781F0004119
:10340000704780F00040704721F00041704720F085
:103410000040704721F00042A2F16052B2F5801FD7
:1034200001F0004328BFD2F17F6C0BD95FEA001C8A
:1034300043EAC20242EB507018BF704728BF20F029
:1034400001007047B2F5801FBCBF184670474FEAB5
:10345000410C1CF5001F02D2084600F08BBD70B570
:1034600000F0FCFA00000089FFF7F6BF4FF00040C3
:10347000A0F580007047000010B591EA030F48BF27
:1034800083F0004300F11E84841A71EB030C05D213
:10349000121943EB0C03001B61EB0C01DFF824E174
:1034A0004FEA1154A4EB135C1EEA430F18BF9EEAC7
:1034B000445F73D023EA0E03DCF1200E21EA0451AD
:1034C00043F4801332D322FA0CFE10EB0E0023FAE1
:1034D0000CFE41EB0E01CCF1200E03FA0EFE10EBB8
:1034E0000E0051F10001B1F5801FCCF1200E32D257
:1034F00001EB045112FA0EF2BDE8104058BF7047BC
:10350000401C38BF5FEA420218BF7047002814BF52
:1035100020F0010041F100014FEA410313F5001FC3
:1035200038BF7047A1F1C04100F0E6BA012A43EB71
:103530000302ACF1200CDCF11F0E32BF4FF0000E85
:1035400023FA0CF310EB030041EB0451B4EB115FD1
:10355000D0D0A1EB045101F5801149085FEA300099
:1035600001EB04510ED350F1000038BF12FA0EFEE9
:1035700008D1BDE81040C9E7401C38BF5FEA4202ED
:10358000CAD1C3E7BDE810404FEA410313F5001F5D
:1035900038BF7047A1F1C04100F0AEBA9EEA445F67
:1035A00008D011EA5E0FBDE8104004BF01F00041F1
:1035B00000207047BDE8104070B500F04FFA00BF22
:1035C00064FBBE3E0000E0FF491058BFC1F140411E
:1035D0005B1058BFC3F140438B42EFF3008070474C
:1035E0002DE9C04130B4DFF8A0C23CEA111418BF85
:1035F0003CEA131400F0EC8081EA03051CEA111484
:1036000044EAD57418BF1CEA131500F0C780A4EB78
:1036100005044FF0004545EAC12145EAC32341EACC
:10362000505143EA525304F17F74994204F5003437
:103630004FEAC0204FEAC22208BF904200F09C80AF
:103640004FEA13650FF24016765D4FEA134506FB0D
:1036500005F7C7F1807706FB07F74FEAD737A7FBD7
:1036600003687642C8F58038A7FB06CE38BFA8F1BC
:10367000010807FB08E64FF0000EA6FB028CE6FBF4
:1036800003CEDCF1000CCEF1004E38BFAEF1010EDE
:10369000A6FB0C584FF000074FF00005E6FB0E8725
:1036A000A1FB08C6A0FB07CE16EB0E0645F10005F0
:1036B000E1FB076515F1E04E7EBFA4F580345FEABB
:1036C00046066D4116F1800745F100054FEA1727C0
:1036D0004FEA066647EA0567A6F1DE46B6F1805F67
:1036E0004FEA15251FD9384624F0010C05EBC471AB
:1036F000BCF1FE6F01EB0C1102D8F0BCBDE80081FB
:1037000024425CBF01F5801E9EEAC47F02D4F0BC57
:10371000BDE80081244238D4F0BCA1F1C041BDE82D
:10372000004100F0E9B94FEAD22242EA43524FEA9F
:10373000D323A7FB02864FEAD02040EA415007FB83
:1037400003661EEA0E0F4FEAD12105FB026658BF41
:10375000A6EB0056B6EB00564FEA520E4EEAC37E79
:1037600018EB0E0E56EB530EBDD518EB02085E415A
:103770007F1C55F10005B6E74FF480154FF00007A8
:103780004FF000064FF00008ADE7F0BC4FF000002E
:1037900001F1C04101F00041BDE8008111EA0C1FB8
:1037A0000CEA131500D00CE013EA0C1F00F0258082
:1037B0004FF00000F0BC81EA030101F00041BDE8D8
:1037C0000081F0BCBDE8004181EA030100F094B93A
:1037D000F0BCBDE8004170B500F040F9097EFC3E48
:1037E00000F007B881EA03014FF0000001F000414A
:1037F000704781EA030100F07FB9F0BCBDE80041E9
:103800004FF0000021497047FFFDFBF9F7F5F4F296
:10381000F0EEEDEBE9E8E6E4E3E1E0DEDDDBDAD86B
:10382000D7D5D4D3D1D0CFCDCCCBCAC8C7C6C5C4C9
:10383000C2C1C0BFBEBDBCBBBAB9B8B7B6B5B4B3E0
:10384000B2B1B0AFAEADACABAAA9A8A8A7A6A5A4CB
:10385000A3A3A2A1A09F9F9E9D9C9C9B9A9999988F
:103860009797969595949393929191908F8F8E8E32
:103870008D8C8C8B8B8A89898888878786858584BF
:1038800084838382828181800000FF070000F87FAB
:1038900051EA030C17D41CF5801F58BFBCF5801FDC
:1038A00000F10680994218BF704708BF90427047E8
:1038B00007D711F5801F58BF13F5801F19D49942FF
:1038C0007047894270471CF5801F08D5BCF5801FE2
:1038D000F7D58B4218BF704708BF824270474FF43C
:1038E000001C1CEB410F38BF1CEB430F01D28B4275
:1038F000704770B500F0B2F8922449004FF00051C3
:103900004FF08053FFF760BEDFF848C170B51CEA86
:10391000111E1EBF1CEA13159EEA0C0F95EA0C0F30
:1039200000F06F8081EA030423EA4C134EEAD47E50
:1039300021EA4C1141F4801143F48013AE44A1FB01
:10394000024CA0FB0365AEF17F7E361955EB0C05EA
:10395000A1FB034C4CF10003A0FB021C16EB0C0670
:10396000654153F10003094218BF46F0010613F404
:10397000007F0BD14FEA03314FEA0530340341EAAF
:10398000155140EA16506FF003020AE04FEAC321D6
:103990004FEAC520F40241EA555140EA56506FF013
:1039A000020202EB2E4201EB025585EACE710AD0EB
:1039B0005FEA440C18BF24F0004450F1000041F1CC
:1039C000000120EAD47040F2FE7C624500D270BD56
:1039D000A84214BF4FF080444FF04044002E08BF6F
:1039E0000024BEF1806FA8BFA1F1C041BDE87040C6
:1039F00080F282804FF0000001F1C04101F00041EF
:103A000070479EEA0C0F0CEA131518BF95EA0C0FCD
:103A100006D04FF0000081EA030E0EF0004170BDA9
:103A200000F01CF88900013E00F007B800F009B86A
:103A30004FEA430C5FEA5C5C08D081EA030100F0C6
:103A40005BB84FEA410C5FEA5C5CF6D14FF00000D6
:103A5000014970470000FF070000F87F0EF1020ED9
:103A60002EF0030E5EF8046B364205D4012A43EBB8
:103A7000030515F5001F12D8012841EB010C1CF5B8
:103A8000001F0CD80ED14FEAD17C15F5001F0CEBAE
:103A90004C0C0CF1020C08BF4CEBD37C04E04FF053
:103AA000080C01E04FEAD37C0CEB4C0526FA05F636
:103AB00006F00706B6F1040C06D20EEB860CBDE844
:103AC00070404CF0010C6047DFE80CF0090B02027B
:103AD0004FF000414FF00000A1F5002170BD1946E4
:103AE0001046012851EB010418BFD4F5001484BF1F
:103AF000002001F0004170BD0808A0F500114FEA58
:103B00003101704791EA030F10B581F000413FF594
:103B1000BBAC83F0004300F0D5B800002DE9F041C4
:103B200001F5801CBCF5001FC0F2A9804FEA115CB2
:103B300021EA0C510CF1FD0C41F480115FEA5C0CA0
:103B40000CF5C07C01D34000494130A4890241EA10
:103B5000905187028E0E0A0CA45D04FB04F602FB52
:103B600006F6C6F14046A4FB0662F60D46EA42267A
:103B700006FB06F4A4FB01235242C3F1404338BFC5
:103B80005B1EA6FB02420024E6FB0324D20B42EAA2
:103B90004446A6FB0623A1FB02E2A3FB07E4E3FBEA
:103BA00061426442C2F1404E38BFAEF1010EA6FB45
:103BB00004234FF00002E6FB0E32A2FB0346340062
:103BC000E2FB6264A1FB06E6A4FB07E8E4FB616894
:103BD0007642C8F1405838BFA8F10108A2FB06E4BC
:103BE000A3FB08E5E2FB6854A1FB05E6A7FB04E89C
:103BF000E1FB648618F1200556F10006A809A8F13A
:103C00001B08B10908F03F08B8F10A0F40EA8660C6
:103C10001CD901EB0C51BDE8F08100BFFCF5EEE8CA
:103C2000E2DDD8D3CFCBC7C3C0BDB9B6B4B1AEAC5B
:103C3000A9A7A5A3A19F9D9B9A9896959392908FD3
:103C40008D8C8B898887868584838281A0FB006820
:103C500000FB01F208EB4208B8EB872807D53418BF
:103C600058EB0104D5D5401C51F10001D1E7341ABD
:103C700078EB0104CDD4401E71F10001C9E75FEA81
:103C80004C0C5FEA9C5C0DD105D34FF0000001F0B5
:103C90000041BDE8F081BDE8F04170B5FFF7DEFE00
:103CA0006DDBFFBEBDE8F0414FF0000000497047FA
:103CB0000000F87F10B591EA030F48BF83F000437E
:103CC0003FF5E2AB841A71EB030C07D212198CF0AA
:103CD000004C43EB0C03001B61EB0C01DFF8A4E18B
:103CE0004FEA1154A4EB135C1EEA430F18BF9EEA7F
:103CF000445F00F0B08023EA6E03524221EA04518F
:103D0000C3EB6E0338BF5B1EDCF1200E25D322FA15
:103D10000CFE10EB0E0043FA0CFE41EB0E01CCF151
:103D2000200E03FA0EFE10EB0E0051F10001CCF153
:103D3000200E29D412FA0EF201EB0451BDE8104016
:103D400058BF7047401C1CBFB2F1004F704700289D
:103D50000CBF491C20F00100704712EB020E43EB30
:103D6000030218BF4FF0010E4EEA4202ACF1200CE4
:103D7000DCF11E0E54D943FA0CFE10EB0E0051F18B
:103D8000FF31CCF11E0ED5D50EF1010E12FA0EFE4A
:103D9000404141EB010101EB445C5FEA5C5C10D9FE
:103DA00010EBDE7001EB045138BFBEF1004FBDE8EF
:103DB000104018BF704700280CBF491C20F00100BC
:103DC000704730D24FEAD42C11F5001124F400646E
:103DD0001BD0B1FA81F20B3AA41AA41ED2F120032F
:103DE000914030FA03F31943904001EBCC71002C61
:103DF00001EB0451BDE81040A8BF704701F1C0417C
:103E00004FF0000001F000417047B0FA80F310FA63
:103E100003F100D110BDE41A173C4805C90AE4E7D4
:103E200001EB045110BD491001EB0451BDE81040F5
:103E30004FEA300002E04FF0000170474A0008BF2F
:103E40000042F8D0B2F5001F28BF704701F00041D2
:103E50004FF0000070479EEA445F07D011EA5E0F02
:103E6000BDE8104004BF002100207047BDE81040AD
:103E700070B5FFF7F3FD00BF40DFF63E83F0004171
:103E8000104670470000E0FF43004FEAD30C4FEAB2
:103E90003C0C43401FBF40070CF1605113F0FE4F34
:103EA00070471CF0006F03D100200CF000417047F8
:103EB0000CF0004343EA507010B540EACC0000F02B
:103EC0000EF800BF000000924FEA0001FFF714BE99
:103ED0004FF000414FF00000A1F5002170470EF1B6
:103EE000020E2EF0030E5EF8044B244204D44FEA77
:103EF0004102B2F17F4F11D84FEA4003B3F17F4F37
:103F00000CD80ED14FEAD07CB2F17F4F0CEB4C0CA9
:103F10000CF1020C08BF4CEBD17C04E04FF0080C14
:103F200001E04FEAD17C0CEB4C0324FA03F404F0DB
:103F30000704B4F1040C06D20EEB840CBDE810406B
:103F40004CF0010C6047DFE80CF0070802024FF06C
:103F50000040A0F5800010BD0846420018BFD2F115
:103F6000807288BF00F0004010BD4FF04070E1EE5D
:103F7000100A7047FF2141EAD050C0057047000089
:103F800000000000000001020304060708090B08F6
:103F90000141090242C0030A0B036B00016C0002DD
:103FA0001900031A02041B10061C00071D00081F3D
:103FB0000F0D244D0937020538010B67010C69C04C
:103FC0000D6A300A0000C844CDCC4C3E0000000011
:103FD000555555555555C53F7D6FEB0312D6D4BF8A
:103FE0005544880E55C1C93F3B8F68B52882A4BF90
:103FF00088B20175E0EF493F09F7FD0DE13D023F51
:104000004B2D8A1C273A03C0C88A599CE52A0040D8
:1040100059018D1B6C06E6BF82922EB1C5B8B33F25
:104020004FBB610567ACDD3F182D4454FB21E93FD0
:104030009BF681D20B73EF3F182D4454FB21F93FBF
:10404000E2652F227F2B7A3C075C143326A6813C45
:10405000BDCBF07A8807703C075C143326A6913CF0
:10406000C4EB98999999C9BF711623FEC671BCBF5C
:104070006D9A74AFF2B0B3BF9AFDDE522DDEADBFC4
:104080002F6C6A2C44B4A2BF0D5555555555D53FDC
:10409000FF8300922449C23F6E204CC5CD45B73FF7
:1040A000513DD0A0660DB13FEB0D76244B7BA93F6F
:1040B00011DA22E33AAD903F00000000000000005A
:1040C000E04000080000002050000000E801000867
:1040D00030410008500000200837000004020008AA
:1040E0000100000010000000000000000024F400A7
:1040F0000000803F00000000000000000000000001
:104100000000000000000000000000000000803FF0
:1041100000000000000000000AD7233C0AD7A33C9F
:10412000CDCC1C4100000000000000000000803FDA
:04000005080001AD41
:00000001FF
