:020000040800F2
:10000000F00600204D020008971100085710000864
:100010009511000843040008651300080000000063
:10002000000000000000000000000000AD12000809
:10003000450400080000000099110008AF120008F4
:1000400067020008670200086702000867020008EC
:1000500067020008670200086702000867020008DC
:1000600067020008670200086702000867020008CC
:1000700067020008670200086702000867020008BC
:1000800067020008670200086702000867020008AC
:10009000670200086702000867020008670200089C
:1000A000670200086702000867020008670200088C
:1000B000670200086702000867020008670200087C
:1000C000670200086702000867020008670200086C
:1000D000670200086702000867020008670200085C
:1000E000670200086702000867020008670200084C
:1000F000670200086702000867020008670200083C
:10010000670200086702000867020008670200082B
:10011000670200086702000867020008670200081B
:10012000670200086702000867020008670200080B
:1001300067020008670200086702000867020008FB
:1001400067020008670200086702000867020008EB
:1001500067020008670200086702000867020008DB
:1001600067020008670200086702000867020008CB
:10017000670200086702000867020008000000002C
:1001800067020008670200086702000867020008AB
:10019000670200086702000867020008670200089B
:1001A00000000000000000006702000800F002F8F4
:1001B00000F03CF80AA090E8000C82448344AAF1C5
:1001C0000107DA4501D100F031F8AFF2090EBAE8C3
:1001D0000F0013F0010F18BFFB1A43F0010318477B
:1001E000C0160000E0160000103A24BF78C878C19D
:1001F000FAD8520724BF30C830C144BF04680C602D
:10020000704700000023002400250026103A28BF74
:1002100078C1FBD8520728BF30C148BF0B60704778
:100220001FB501F014FB1FBD10B510BD00F0D4F8D0
:100230001146FFF7F5FF01F069F900F0F2F803B499
:10024000FFF7F2FF03BC00F0F5F800000948804713
:1002500009480047FEE7FEE7FEE7FEE7FEE7FEE7A8
:10026000FEE7FEE7FEE7FEE704480549054A064BC0
:100270007047000055130008AD010008F000002091
:10028000F0060020F0020020F002002053EA020CE9
:1002900000F069802DE9F04B4FF00006002B1FBFE6
:1002A000B3FA83F503FA05F424FA05F65E4012BFAB
:1002B0001643B2FA82F502FA05F4C5F120051EBF15
:1002C00022FA05FC44EA0C04203556EA044C4FEAB5
:1002D000144418BF641C4FF000084FF0000990420E
:1002E00071EB030C39D3002919BFB1FA81F701FA78
:1002F00007F6B0FA80F700FA07F6C7F120071EBF2D
:1003000020FA07FC46EA0C062037B6FBF4FCA7EB04
:100310000507103F07F01F0BCBF120060CFA0BFB73
:100320002CFA06F644BFB3460026202FA4BF5E4633
:100330004FF0000B5BEA060C08BF4FF0010B19EB06
:100340000B09ABFB027C48EB0608C01B06FB02CC8A
:100350000BFB03CC71EB0C01C1E70B460246414697
:100360004846BDE8F08B13B54FF000004FF0000198
:10037000AFF30080BDE81C4070474FF0000200B5AD
:10038000134694469646203922BFA0E80C50A0E8B8
:100390000C50B1F12001BFF4F7AF090728BFA0E866
:1003A0000C5048BF0CC05DF804EB890028BF40F832
:1003B000042B08BF704748BF20F8022B11F0804F74
:1003C00018BF00F8012B7047704770477047000056
:1003D00000487047900000207546FFF7F9FFAE46D1
:1003E00005006946534620F00700854618B020B541
:1003F000FFF73AFFBDE820404FF000064FF000073E
:100400004FF000084FF0000B21F00701AC46ACE8BC
:10041000C009ACE8C009ACE8C009ACE8C0098D4629
:10042000704710B50446AFF300802046BDE8104089
:10043000FFF705BF01491820ABBEFEE7260002000A
:100440007047FEE7704772B6FEE700002DE9F84FEF
:10045000DFF8F8A10022012403254FF00F090AF16B
:10046000040BAAF1040E00BF0B6804FA02F6334035
:10047000B34270D10F7907F00307012F01D0022F8B
:1004800016D187684FEA420805FA08FC27EA0C07EC
:10049000D1F80CC00CFA08FC4CEA070CC0F808C0F4
:1004A0004768B7430E79C6F3001696403E43466050
:1004B0000E79F643B6070AD0C7684FEA420C05FA30
:1004C0000CF6B7438E6806FA0CF63E43C6600E790A
:1004D00006F00306022E10D1D60800EB8608D8F8E5
:1004E000206057074FEAD76C09FA0CF7BE430F6933
:1004F00007FA0CF73743C8F8207006684FEA420C39
:1005000005FA0CF7BE430F7907F0030707FA0CF75B
:10051000374307604E6816F4403F1CD04C4E376896
:1005200047F480473760366822F0030706F48046B8
:100530000096484E07EB060CDCF8086897073F0F5B
:1005400009FA07F826EA0806DFF80C81404503D1CE
:100550004FF0000841E072E0DFF80081404502D131
:100560004FF0010839E0DFF8F880404502D14FF044
:10057000020832E0DFF8EC80404502D14FF003087A
:100580002BE0DFF8E480404502D14FF0040824E07E
:10059000DFF8D880404502D14FF005081DE0DFF8B4
:1005A000D080404502D14FF0060816E0DFF8C48045
:1005B000404502D14FF007080FE0DFF8BC8040450E
:1005C00002D14FF0080808E0DFF8B080404502D1C2
:1005D0004FF0090801E04FF00A0808FA07F848EA66
:1005E0000608CCF80888DAF800605746D1F804C04D
:1005F0009E435FEACC2C00D51E433E60DBF80060D2
:100600005F46D1F804C09E435FEA8C2C00D51E43A0
:100610003E60DEF800607746D1F804C09E435FEA92
:100620008C3C00D51E433E60084F083F3E68D1F821
:1006300004C09E435FEACC3C00D51E433E60521C82
:10064000102AFFF411AFBDE8F88F0000083C01400C
:1006500044380240003001400000024000040240E3
:1006600000080240000C024000100240001402404A
:1006700000180240001C02400020024000240240FA
:100680000AB1816170470904FBE7000001488068F6
:10069000704700000400002002488168027811447D
:1006A00081607047040000200B4810B5016841F4D8
:1006B00000710160016841F480610160016841F4EA
:1006C00080710160032000F061F80F2000F006F84F
:1006D00000F024F8002010BD003C024070B50D4D24
:1006E00004464FF47A712878B1FBF0F00A490968A2
:1006F000B1FBF0F000F09BFC48B9102C07D20022AF
:100700002146501E00F022F800206C6070BD0120D0
:1007100070BD000004000020100000200A4808B549
:10072000016841F480410160006800F4804000905D
:100730000548001F016841F080510160006800F029
:100740008050009008BD000044380240F0B40E4BC9
:100750001B680C46C3F30223C3F10705042D00D91F
:100760000425191D072901D2002300E0DB1E012604
:1007700006FA05F1491E214099409E40761E16401A
:100780003143F0BC00F0EFBD0CED00E0064900F095
:10079000070208684FF6FF03184040EA0220034AA8
:1007A00010430860704700000CED00E00000FA05FF
:1007B0002DE9F8431748016841F080510160006855
:1007C000154F00F08050012600903E64FFF75EFF59
:1007D00005464FF47A78114C05E000BFFFF756FF4D
:1007E000401B40450DD86068C003F7D57E64FFF715
:1007F0004DFF0546464607E0FFF748FF401BB04265
:1008000002D90320BDE8F88360688003F4D5002096
:10081000F8E700004038024000000E42007000403F
:100820002DE9F0470E46050065D0DFF81481D8F8B1
:100830000000F7B200F00F00B04207D288F8007055
:10084000D8F8000000F00F00B04254D128683D4CA9
:10085000810712D5400703D5206840F4E05020609E
:100860002878000703D5206840F4604020602068A5
:10087000A96820F0F000084320602878C0072DD038
:10088000304968680839012812D0022813D003289B
:1008900011D00968890700292DDA216821F00301A8
:1008A00001432160FFF7F2FE814641F2883A0EE0F3
:1008B00009688903EFE709688901ECE7FFF7E6FEBD
:1008C000A0EB0901514502D90320BDE8F08720685B
:1008D000696800F00C00B0EB810FEFD1D8F8001080
:1008E000404601F00F01B14207D90770006800F0DF
:1008F0000F00B04201D00120E7E72878400705D576
:100900002068E96820F4E050084320602878000758
:1009100006D52068296920F4604040EAC1002060C3
:1009200000F018F82168084AC1F30311515CC8406F
:100930000649086006480068FFF7D0FE0020C4E7BB
:10094000003C0240083802405818000810000020FF
:1009500008000020154810B5006810F00C0214487B
:1009600013D01449042A0FD0082A0ED10F4C241F8B
:100970002268236802F03F025B0207D52068C0F3BB
:100980008810A0FB010106E0084610BD2168C1F3F4
:100990008811A1FB00010023FFF778FC2168C1F357
:1009A0000141491C4900B0FBF1F010BD083802407C
:1009B0000024F400001BB7002DE9F84F04006ED0AE
:1009C0002078DFF84C93C007A9F104054AD009F15B
:1009D00004000168C1F38101012908D00068C0F357
:1009E000810002280AD1D9F80000400206D5286803
:1009F000800337D560680028E1D033E06068B0F547
:100A0000803F10D0B0F5A02F286810D020F480309F
:100A10002860286820F4802028606068A8B1FFF76B
:100A200035FE06460DE0286840F48030F4E740F4D7
:100A300080202860F7E700BFFFF728FE801B6428AE
:100A400073D828688003F7D50CE0FFF71FFE064631
:100A500005E000BFFFF71AFE801B6428F0D8286865
:100A60008003F7D42078DFF8AC8280074FF0000ACB
:100A70003ED5A748001D016811F00C0F08D0006892
:100A8000C0F3810002280BD1D9F80000400207D43E
:100A90002868800716D5E068012800D112E033E10C
:100AA000E068B8B10120C8F80000FFF7EFFD064686
:100AB00005E000BFFFF7EAFD801B0228C0D82868C8
:100AC0008007F7D52868216920F0F80040EAC100C6
:100AD00028600DE0C8F800A0FFF7D8FD064604E046
:100AE000FFF7D4FD801B02281FD828688007F7D4A1
:100AF0002078000722D5864F87486169703771B129
:100B000001210160FFF7C2FD064604E0FFF7BEFDCC
:100B1000801B022809D838688007F7D50EE0C0F896
:100B200000A0FFF7B3FD064605E082E0FFF7AEFD4B
:100B3000801B02287DD838688007F7D420784007CA
:100B400068D5DFF8CCB100270BF13C0BDBF80000D7
:100B5000C0000BD4DBF8001041F08051CBF800103E
:100B6000DBF80000012700F0805000906B4E3068E9
:100B7000C00510D4306840F480703060FFF786FD07
:100B8000009005E0FFF782FD0099401A022850D836
:100B90003068C005F6D55E4EA0686C3601280FD0CF
:100BA0000528306810D020F001003060306820F057
:100BB00004003060A068B8B1FFF768FD00900FE056
:100BC000306840F00100F4E740F004003060F7E7DF
:100BD000FFF75CFD0099411A41F28830814266D8E6
:100BE00030688007F4D50EE0FFF750FD009007E075
:100BF000FFF74CFD0099411A41F28830814256D8E6
:100C000030688007F4D42FB1DBF8001021F0805158
:100C1000CBF80010A069C8B33D49091D0968C1F3AC
:100C2000810102294AD00228504607D0C8F8600046
:100C300000E03CE0FFF72AFD04463BE04746C8F8E9
:100C40006000FFF723FD064605E000BFFFF71EFD2D
:100C5000801B02282BD828688001F7D4D4E907012B
:100C60000843A16A2E4A490802EB0141626A41EA3F
:100C70008211084394F82C1040EA0161C9F8001071
:100C800001203866FFF702FD044606E03EE000BFA3
:100C9000FFF7FCFC001B022809D828688001F7D563
:100CA00034E000BFFFF7F2FC001B022802D903204A
:100CB000BDE8F88F28688001F4D427E00128F7D038
:100CC000D9F80000E26900F4800191421CD1226A47
:100CD00000F03F01914217D147F6C071626A0140AE
:100CE000B1EB821F10D1A26A4FF0FF3300F4403104
:100CF00003EB5202B1EB024F06D194F82C1000F036
:100D00007060B0EB016F01D00120D1E70020CFE788
:100D10000438024000004742800E47420070004005
:100D20000000FFFF70B5040009D0606A002540B1E3
:100D300025616561A56294F8510040B10CE0012085
:100D400070BD6068B0F5827FF4D0E561F2E784F8A9
:100D50005050204600F044F8022084F851002068EA
:100D6000016821F040010160A088218900F48270AF
:100D700001F404410843A18901F400610843217C86
:100D800001F002010843217D01F001010843218B9C
:100D900001F400710843217F01F03801084394F801
:100DA000201001F080010843218D01F40051084317
:100DB00021680860A069042101EA104094F8241019
:100DC00001F010010843216848602068C16921F4DE
:100DD0000061C1616565012084F85100002070BD8B
:100DE00010B586B0044614216846FFF7C6FA1449C8
:100DF0002068884221D113480021026842F4801201
:100E00000260006800F4801005900E4814380268F3
:100E100042F020020260006800F0200005904FF4CC
:100E2000607000900220CDE90101032003900520AD
:100E3000049069460448FFF709FB06B010BD0000A6
:100E40000050014044380240001402402DE9F84FA0
:100E5000044690F8500000270A9E1D4692468B4695
:100E60004FF0010901280ED0012084F85000FFF74F
:100E70000DFC804694F85100616801280CD0B1F552
:100E8000827F07D102E00220BDE8F88FA16809B98E
:100E9000042801D00227C2E0BBF1000F27D0BAF12D
:100EA000000F24D01DB394F85100042802D005206F
:100EB00084F8510000206065C4F838A0E587A58754
:100EC000C4F830B0E586A5862064606420680168B7
:100ED000490603D4016841F040010160E068B0F5C3
:100EE000006F606805D0E8B3012D46D07FE0012790
:100EF00095E008B1012D39D1206B21680088C860C8
:100F0000206B801C2063E08E401EE0862EE020686F
:100F1000816889070FD5E18E69B1B9F1010F0AD156
:100F2000216B0988C160206B801C2063E08E401E0D
:100F3000E0864FF0000920688168C9070CD0E18F76
:100F400051B1C068A16B0880A06B801CA063E08FCA
:100F5000401EE0874FF00109FFF798FBA0EB080067
:100F6000B04200E009E001D3701C50D1E08E0028AF
:100F7000CDD1E08F0028CAD13FE0206B21680078F6
:100F80000873206B401C2063E08E401EE0862EE03C
:100F90002068816889070FD5E18E69B1B9F1010F29
:100FA0000AD1216B09780173206B401C2063E08E0D
:100FB000401EE0864FF0000920688168C9070CD008
:100FC000E18F51B1C068A16B0870A06B401CA06399
:100FD000E08F401EE0874FF00109FFF757FBA0EBC1
:100FE0000800B04202D3701C01D010E07EB1E08E48
:100FF0000028CDD1E08F0028CAD142463146204694
:1010000000F0CCF828B101272020606507E0032715
:1010100005E0A06818B92068C168806800900120C8
:1010200084F85100002084F8500038462CE710B5B1
:10103000401EB0F1807F01D3012010BD4FF0E024AD
:1010400060610F21601700F08EF90020A061072079
:101050002061002010BDFEE72DE9F04786B0142185
:101060006846FFF78AF937480025016841F010010A
:101070000160016801F010010591016841F0010172
:101080000160016801F001010591016841F08001F2
:101090000160016801F080010591016841F02001C3
:1010A00001600068DFF8A09000F0200005900122A8
:1010B00004214846FFF7E4FADFF890A0012240211E
:1010C0005046FFF7DDFA4FF40067002239464846E4
:1010D000FFF7D6FA4FF48048002241465046FFF70A
:1010E000CFFA0820CDE9000501246946029448465C
:1010F000FFF7ACF90420CDE900040326CDE9024650
:1011000069464846FFF7A2F94020CDE90004CDE941
:10111000024669465046FFF799F90097CDE9014527
:10112000694648460395FFF791F9CDF80080CDE96F
:101130000145694650460395FFF788F906B0BDE8BA
:10114000F0870000303802400010024000140240D6
:101150000F4810B50D4901604FF4827141600021C4
:101160008160C1604FF400720161C0E90512C16184
:101170000162416281620A21C162FFF7D3FD00284A
:1011800003D0BDE81040FFF75EB910BD005001402C
:1011900038000020FEE7FEE77047000038B504463F
:1011A0001248134B0068B0FBF3F04FF47A735843C6
:1011B00000906068B0F5827F0DD10B46009200224E
:1011C0008021204600F016F870B1606D40F02000DC
:1011D0006065032038BD009830B1401E0090206843
:1011E0008068C0430006F6D5002038BD10000020FE
:1011F00000366E012DE9F8431E46914688460446A6
:10120000089DFFF743FA401B351AFFF73FFA0746E0
:1012100025480068C0F3CB30684338E0701C37D0F5
:10122000FFF734FAC01BA84203D215B1009860B38F
:101230002CE02068416821F0E00141606068B0F571
:10124000827F0BD1A068B0F5004F02D0B0F5806F5F
:1012500004D12068016821F040010160A06AB0F566
:10126000005F09D12068016821F400510160206805
:10127000016841F400510160012084F85100002010
:1012800084F850000320BDE8F8830025401E00903C
:101290002068816838EA010004D000214945BDD1A9
:1012A0000020F0E70121F9E7100000207047FFF768
:1012B000F3B9000030B593B030216846FFF75DF810
:1012C00014210CA8FFF759F820480025016841F0C7
:1012D00080510160006800F0805011901C48016846
:1012E00041F4404101600068022400F44040119044
:1012F00001200090000401908001CDE90640062005
:101300000890B420CDE9090404200B906846FFF74B
:1013100053FB08B172B6FEE7FFF74AFA08B172B69E
:10132000FEE70CA90F2081E831004FF4A0500F9088
:101330004FF48050109005210CA8FFF771FA002897
:1013400001D072B6FEE713B030BD00004038024055
:10135000007000400248016841F47001016070476C
:1013600088ED00E0FEE70907090E002804DB00F124
:10137000E02080F80014704700F00F0000F1E0203A
:1013800080F8141D7047704770B514460D46064628
:1013900008E0304600F00AF8761C641E05F8010BE0
:1013A000F6B2E4B2002CF4D170BD000008B509A17A
:1013B0000322096800918DF801006946252000F09C
:1013C00007FA4FF4FA6000F037FA492000F0D2F93A
:1013D00008BD00008E00810008B506A212680092C8
:1013E0008DF801008DF8021004226946312000F0CA
:1013F000EFF908BD0E000080012204210148FFF72B
:101400003FB9000000100240002204210148FFF70C
:1014100037B900000010024008B504A0032200689C
:1014200000906946252000F0D3F908BD8E0288009F
:10143000704700F0F4B900F0FFB900002DE9F04169
:101440000024FFF7A0FFFFF7F3FFFFF7DDFF3220D7
:10145000FFF7EFFF3220FFF7ECFFFFF7CDFF002093
:10146000FFF7A4FF102802D04020BDE8F081114D05
:1014700004EB44067719A85D7978FFF7ADFF962055
:10148000FFF7D9FFA85DFFF791FF06469620FFF70B
:10149000D2FF7878B04204D004EB4400284480782E
:1014A000E3E7641CE4B2042CE2D3FFF7B5FF0020AD
:1014B000DBE70000681800081CB5044606226946F0
:1014C0000220FFF761FFBDF9000000EE100AF8EE00
:1014D000C00A9FED0D0A60EE800AC4ED000ABDF956
:1014E000020000EE900AF8EEE00A60EE800AC4ED19
:1014F000010ABDF9040000EE900AF8EEE00A20EEC1
:10150000800A84ED020A1CBD9A99993EFFF7CCF837
:10151000FFF7D0FEFFF7A0FDFFF71AFE00F03EF840
:101520000028FBD1FFF78AFF0028FBD1074800F015
:10153000CDF806480C3000F08FF8054800F02AF985
:1015400002481830FFF7B8FFF0E700001400002051
:101550000000002070470000012240210148FFF7F1
:101560008FB8000000140240002240210148FFF71C
:1015700087B800000014024001B582B04FF47A70C1
:101580000090012301AA02A90248FFF75FFC9DF821
:1015900004000EBD38000020704700002DE9F04126
:1015A0004FF0960832250024FFF7D4FFFFF7F4FF31
:1015B000752000F0DFF8404600F04AF8752000F092
:1015C000D9F8404600F044F880216B2000F018F96B
:1015D000284600F03BF8752000F0CCF8404600F0BB
:1015E00037F8752000F0C6F8404600F031F8752055
:1015F00000F0C0F80546404600F02AF8702D02D0F1
:101600008020BDE8F081104D04EB44067719A85DF9
:10161000797800F0F5F8404600F01AF8A85D00F07F
:10162000A9F80646404600F013F87878B04204D096
:1016300004EB440028448078E3E7641CE4B20E2CF9
:10164000E2D30020DDE700007418000800F0E7B8DE
:1016500080B200F0F1B800001CB5044606226946CD
:101660003B2000F06DF89DF800009DF8011000028D
:1016700000B2084300EE100AF8EEC00A9FED120A0D
:1016800060EE800AC4ED000A9DF802009DF8031088
:10169000000200B2084300EE900AF8EEE00A60EEA5
:1016A000800AC4ED010A9DF804009DF805100002AF
:1016B00000B2084300EE900AF8EEE00A20EE800A3D
:1016C00084ED020A1CBD0000CDCC1C3A1CB50446BA
:1016D00006226946432000F033F89DF800009DF88B
:1016E0000110000200B2084300EE100AF8EEC00A32
:1016F0009FED120A60EE800AC4ED000A9DF8020018
:101700009DF80310000200B2084300EE900AF8EEC4
:10171000E00A60EE800AC4ED010A9DF804009DF81D
:101720000510000200B2084300EE900AF8EEE00A4D
:1017300020EE800A84ED020A1CBD000058A00B3A7E
:1017400070B516460D460446FFF70EFF44F08000C4
:10175000FFF712FF56B1002406E0FF20FFF70CFF51
:10176000641C05F8010BE4B2B442F6D3BDE8704046
:10177000FFF7F2BE10B50446FFF7F6FE44F0800016
:10178000FFF7FAFEFF20FFF7F7FE0446FFF7E4FE3F
:10179000204610BD38B50446022269464120FFF7B5
:1017A000CFFF9DF800009FED091A000201B29DF8DD
:1017B0000100014300EE101AF8EEC00AB3EE070A6A
:1017C00000EE810A84ED000A38BD00006F12033B71
:1017D00070B516460D460446FFF7C6FE2046FFF7D5
:1017E000CBFE4EB1002405E02878FFF7C5FE641C4F
:1017F000E4B26D1CB442F7D3BDE87040FFF7ACBE55
:1018000070B50D460446FFF7AFFE2046FFF7B4FE65
:101810002846FFF7B1FEBDE87040FFF79DBE00B55A
:1018200002464FF47A7304E0184600F005F8521EA1
:1018300092B2002AF8D100BD06E03221491E11F013
:10184000FF01FBD1401E80B20028F6D170474FF057
:101850004070E1EE100A7047000000000000000038
:1018600001020304060708090B080141090242C0EE
:10187000030A0B036B00016C00021900031A020437
:101880001B10061C00071D00081F0F0D244D0937F3
:10189000020538010B67010C69C00D6A300A0000AF
:1018A000C01800080000002014000000E801000833
:1018B000D418000814000020DC0600000402000810
:1018C0000000000001000000100000000000000007
:0418D0000024F400FC
:04000005080001AD41
:00000001FF
