:020000040800F2
:10000000500700204D0200083314000807130008B1
:100010003114000843040008DD1700080000000048
:10002000000000000000000000000000371400087D
:10003000F504000800000000351400083914000819
:1000400067020008670200086702000867020008EC
:1000500067020008670200086702000867020008DC
:1000600067020008670200086702000867020008CC
:1000700067020008670200086702000867020008BC
:1000800067020008670200086702000867020008AC
:10009000670200086702000867020008670200089C
:1000A000670200086702000867020008670200088C
:1000B000670200086702000867020008670200087C
:1000C000670200086702000867020008670200086C
:1000D000670200086702000867020008670200085C
:1000E000670200086702000867020008670200084C
:1000F000670200086702000867020008670200083C
:10010000670200086702000867020008670200082B
:10011000670200086702000867020008670200081B
:10012000670200086702000845040008670200082B
:1001300067020008670200086702000867020008FB
:1001400067020008670200086702000867020008EB
:1001500067020008670200086702000867020008DB
:1001600067020008670200086702000867020008CB
:10017000670200086702000867020008000000002C
:1001800067020008670200086702000867020008AB
:10019000670200086702000867020008670200089B
:1001A00000000000000000006702000800F002F8F4
:1001B00000F03CF80AA090E8000C82448344AAF1C5
:1001C0000107DA4501D100F031F8AFF2090EBAE8C3
:1001D0000F0013F0010F18BFFB1A43F0010318477B
:1001E00080160000A0160000103A24BF78C878C11D
:1001F000FAD8520724BF30C830C144BF04680C602D
:10020000704700000023002400250026103A28BF74
:1002100078C1FBD8520728BF30C148BF0B60704778
:100220001FB501F007FB1FBD10B510BD00F0CFF8E2
:100230001146FFF7F5FF01F0E3FA00F0EDF803B423
:10024000FFF7F2FF03BC00F0F5F800000948804713
:1002500009480047FEE7FEE7FEE7FEE7FEE7FEE7A8
:10026000FEE7FEE7FEE7FEE704480549054A064BC0
:1002700070470000DD140008AD01000850010020A7
:1002800050070020500300205003002053EA020CC6
:1002900000F069802DE9F04B4FF00006002B1FBFE6
:1002A000B3FA83F503FA05F424FA05F65E4012BFAB
:1002B0001643B2FA82F502FA05F4C5F120051EBF15
:1002C00022FA05FC44EA0C04203556EA044C4FEAB5
:1002D000144418BF641C4FF000084FF0000990420E
:1002E00071EB030C39D3002919BFB1FA81F701FA78
:1002F00007F6B0FA80F700FA07F6C7F120071EBF2D
:1003000020FA07FC46EA0C062037B6FBF4FCA7EB04
:100310000507103F07F01F0BCBF120060CFA0BFB73
:100320002CFA06F644BFB3460026202FA4BF5E4633
:100330004FF0000B5BEA060C08BF4FF0010B19EB06
:100340000B09ABFB027C48EB0608C01B06FB02CC8A
:100350000BFB03CC71EB0C01C1E70B460246414697
:100360004846BDE8F08B13B54FF000004FF0000198
:10037000AFF30080BDE81C4070474FF0000200B5AD
:10038000134694469646203922BFA0E80C50A0E8B8
:100390000C50B1F12001BFF4F7AF090728BFA0E866
:1003A0000C5048BF0CC05DF804EB890028BF40F832
:1003B000042B08BF704748BF20F8022B11F0804F74
:1003C00018BF00F8012B704770477047704775469B
:1003D00000F02CF8AE4605006946534620F00700B1
:1003E000854618B020B5FFF73FFFBDE820404FF02D
:1003F00000064FF000074FF000084FF0000B21F00F
:100400000701AC46ACE8C009ACE8C009ACE8C009DB
:10041000ACE8C0098D46704710B50446AFF30080C4
:100420002046BDE81040FFF70ABF000000487047B3
:10043000F000002001491820ABBEFEE726000200B4
:100440007047FEE7014800F059B800005400002052
:1004500001681823CAB2103AB2FBF3F2054B6FF3EE
:100460000901032A9B5CC36500D9091D8165084603
:10047000704700003E18000810B5014600208B6947
:100480008A6A4FF0C07453B1B3F5005F15D072B1F2
:10049000012A0CD0022A0AD0032A09D104E01AB199
:1004A000012A06D0022A03D1C96AC90100D5012058
:1004B00010BDC96AA142FAD010BD002AF7D0012AA6
:1004C000F2D0022AF3D0032AF3D010BD30B504686D
:1004D000256825F480252560046863608368402BC7
:1004E000036803D099600068C26030BD9A600068FC
:1004F000C16030BD704772B6FEE700002DE9F843D9
:1005000004464FF00009CDF8009063484FF41651AF
:10051000A56D0068B0FBF1F72E6894F85C10082018
:1005200000FA01F131420FD021680A6852070BD559
:100530000A6822F004020A6094F85C108840A860FF
:10054000606D40F00100606594F85C104FF00108A8
:1005500008FA01F0304208D021684969090604D53B
:10056000A860606D40F00200606594F85C100420A3
:100570008840304208D021680968890704D5A860FE
:10058000606D40F00400606594F85C1010208840B5
:10059000304218D021680968090714D5A86020687E
:1005A0000168490304D50068000308D5A16C07E081
:1005B0000168C90503D4016821F008010160216CBC
:1005C00009B12046884794F85C10202088403042CA
:1005D00031D021680968C9062DD5A86094F8350086
:1005E00005282068016806D0490347D50068000344
:1005F0001DD4616C1CE021F0160101602068416986
:1006000021F080014161206C08B9A06C20B1206804
:10061000016821F00801016094F85C103F208840D7
:10062000A86084F8358084F83490216D1FE0E16B78
:1006300009B120468847606D00282BD0606DC00747
:1006400014D0052084F835002068016821F00101EC
:1006500001600098401C0090B84203D820680068F0
:10066000C007F6D184F8358084F83490E16C002915
:1006700010D001B02046BDE8F04308470168C90525
:10068000D5D4016821F01001016084F8358084F828
:100690003490CCE7BDE8F8830C0000202DE9F04150
:1006A000044600F0BDF906465CB1022084F835002E
:1006B000002584F834502068016821F001010160B0
:1006C0000DE00120BDE8F08100F0AAF9801B0528AB
:1006D00005D920206065032084F83500F2E7206802
:1006E0000068C007F0D12268116820480140D4E9B1
:1006F00001031843D4E903363343184363691843AD
:10070000A3691843E3691843236A18430843616ADD
:10071000042903D1D4E90B1319430843106020685E
:100720004069666A20F0070130460E43012704281D
:100730000CD1A06A0643E06A40B12046FFF79CFE58
:1007400020B14020606584F83570BAE720684661C2
:100750002046FFF77DFE94F85C203F2191408160A8
:10076000656584F835700020ACE700003F8010F02C
:100770002DE9F0410446866D90F8340000250128EB
:100780000DD0012084F8340094F835700020012F3A
:1007900007D084F8340002252846BDE8F081022005
:1007A000FBE7022784F8357060652046FFF78EFE70
:1007B00094F85C103F208840B0602068016841F0E8
:1007C00016010160206C20B12068016841F0080129
:1007D00001602068016841F001010160DCE7000070
:1007E0002DE9F84FDFF8F8A10022012403254FF08E
:1007F0000F090AF1040BAAF1040E00BF0B6804FAFA
:1008000002F63340B34270D10F7907F00307012F8E
:1008100001D0022F16D187684FEA420805FA08FC7A
:1008200027EA0C07D1F80CC00CFA08FC4CEA070CBC
:10083000C0F808C04768B7430E79C6F30016964063
:100840003E4346600E79F643B6070AD0C7684FEAC2
:10085000420C05FA0CF6B7438E6806FA0CF63E43D6
:10086000C6600E7906F00306022E10D1D60800EB02
:100870008608D8F8206057074FEAD76C09FA0CF7BA
:10088000BE430F6907FA0CF73743C8F820700668B3
:100890004FEA420C05FA0CF7BE430F7907F0030745
:1008A00007FA0CF7374307604E6816F4403F1CD038
:1008B0004C4E376847F480473760366822F00307AC
:1008C00006F480460096484E07EB060CDCF80868F4
:1008D00097073F0F09FA07F826EA0806DFF80C81A8
:1008E000404503D14FF0000841E072E0DFF800819D
:1008F000404502D14FF0010839E0DFF8F88040456B
:1009000002D14FF0020832E0DFF8EC80404502D11E
:100910004FF003082BE0DFF8E480404502D14FF0B0
:10092000040824E0DFF8D880404502D14FF00508E4
:100930001DE0DFF8D080404502D14FF0060816E0F8
:10094000DFF8C480404502D14FF007080FE0DFF820
:10095000BC80404502D14FF0080808E0DFF8B080C5
:10096000404502D14FF0090801E04FF00A0808FAAB
:1009700007F848EA0608CCF80888DAF80060574615
:10098000D1F804C09E435FEACC2C00D51E433E60E4
:10099000DBF800605F46D1F804C09E435FEA8C2C10
:1009A00000D51E433E60DEF800607746D1F804C0F3
:1009B0009E435FEA8C3C00D51E433E60084F083FD3
:1009C0003E68D1F804C09E435FEACC3C00D51E438C
:1009D0003E60521C102AFFF411AFBDE8F88F0000F2
:1009E000083C014044380240003001400000024011
:1009F0000004024000080240000C024000100240C7
:100A00000014024000180240001C02400020024076
:100A1000002402400AB1816170470904FBE700002D
:100A2000014880687047000000000020024881688B
:100A30000278114481607047000000200B4810B517
:100A4000016841F400710160016841F48061016056
:100A5000016841F480710160032000F06FF80F20FD
:100A600000F006F800F024F8002010BD003C024021
:100A700070B50D4D04464FF47A712878B1FBF0F053
:100A80000A490968B1FBF0F000F044FB48B9102CAA
:100A900007D200222146501E00F030F800206C6082
:100AA00070BD012070BD0000000000200C0000207F
:100AB0000A4808B5016841F480410160006800F40B
:100AC000804000900548001F016841F0805101609E
:100AD000006800F08050009008BD000044380240DB
:100AE000002809DB00F01F0201219140400980002D
:100AF00000F1E020C0F8001170470000F0B40E4B88
:100B00001B680C46C3F30223C3F10705042D00D96B
:100B10000425191D072901D2002300E0DB1E012650
:100B200006FA05F1491E214099409E40761E164066
:100B30003143F0BC00F053BE0CED00E0064900F07C
:100B4000070208684FF6FF03184040EA0220034AF4
:100B500010430860704700000CED00E00000FA054B
:100B60002DE9F8431748016841F0805101600068A1
:100B7000154F00F08050012600903E64FFF750FFB3
:100B800005464FF47A78114C05E000BFFFF748FFA7
:100B9000401B40450DD86068C003F7D57E64FFF761
:100BA0003FFF0546464607E0FFF73AFF401BB042CD
:100BB00002D90320BDE8F88360688003F4D50020E3
:100BC000F8E700004038024000000E42007000408C
:100BD0002DE9F0470E46050065D0DFF81481D8F8FE
:100BE0000000F7B200F00F00B04207D288F80070A2
:100BF000D8F8000000F00F00B04254D128683D4CF6
:100C0000810712D5400703D5206840F4E0502060EA
:100C10002878000703D5206840F4604020602068F1
:100C2000A96820F0F000084320602878C0072DD084
:100C3000304968680839012812D0022813D00328E7
:100C400011D00968890700292DDA216821F00301F4
:100C500001432160FFF7E4FE814641F2883A0EE04D
:100C600009688903EFE709688901ECE7FFF7D8FE17
:100C7000A0EB0901514502D90320BDE8F0872068A7
:100C8000696800F00C00B0EB810FEFD1D8F80010CC
:100C9000404601F00F01B14207D90770006800F02B
:100CA0000F00B04201D00120E7E72878400705D5C2
:100CB0002068E96820F4E0500843206028780007A5
:100CC00006D52068296920F4604040EAC100206010
:100CD00000F038F82168084AC1F30311515CC8409C
:100CE0000649086006480068FFF7C2FE0020C4E716
:100CF000003C024008380240461800080C00002062
:100D0000040000200448054900680968044AC1F34A
:100D10008221515CC84070470C0000200838024016
:100D2000561800080448054900680968044AC1F3D8
:100D30004231515CC84070470C0000200838024026
:100D400056180008154810B5006810F00C02144839
:100D500013D01449042A0FD0082A0ED10F4C241F97
:100D60002268236802F03F025B0207D52068C0F3C7
:100D70008810A0FB010106E0084610BD2168C1F300
:100D80008811A1FB00010023FFF780FA2168C1F35D
:100D90000141491C4900B0FBF1F010BD0838024088
:100DA0000024F400001BB7002DE9F84F04006ED0BA
:100DB0002078DFF84C93C007A9F104054AD009F167
:100DC00004000168C1F38101012908D00068C0F363
:100DD000810002280AD1D9F80000400206D528680F
:100DE000800337D560680028E1D033E06068B0F553
:100DF000803F10D0B0F5A02F286810D020F48030AC
:100E00002860286820F4802028606068A8B1FFF777
:100E100007FE06460DE0286840F48030F4E740F411
:100E200080202860F7E700BFFFF7FAFD801B6428E9
:100E300073D828688003F7D50CE0FFF7F1FD06466C
:100E400005E000BFFFF7ECFD801B6428F0D82868A0
:100E50008003F7D42078DFF8AC8280074FF0000AD7
:100E60003ED5A748001D016811F00C0F08D000689E
:100E7000C0F3810002280BD1D9F80000400207D44A
:100E80002868800716D5E068012800D112E033E118
:100E9000E068B8B10120C8F80000FFF7C1FD0646C0
:100EA00005E000BFFFF7BCFD801B0228C0D8286802
:100EB0008007F7D52868216920F0F80040EAC100D2
:100EC00028600DE0C8F800A0FFF7AAFD064604E080
:100ED000FFF7A6FD801B02281FD828688007F7D4DB
:100EE0002078000722D5864F87486169703771B135
:100EF00001210160FFF794FD064604E0FFF790FD35
:100F0000801B022809D838688007F7D50EE0C0F8A2
:100F100000A0FFF785FD064605E082E0FFF780FDB3
:100F2000801B02287DD838688007F7D420784007D6
:100F300068D5DFF8CCB100270BF13C0BDBF80000E3
:100F4000C0000BD4DBF8001041F08051CBF800104A
:100F5000DBF80000012700F0805000906B4E3068F5
:100F6000C00510D4306840F480703060FFF758FD41
:100F7000009005E0FFF754FD0099401A022850D870
:100F80003068C005F6D55E4EA0686C3601280FD0DB
:100F90000528306810D020F001003060306820F063
:100FA00004003060A068B8B1FFF73AFD00900FE090
:100FB000306840F00100F4E740F004003060F7E7EB
:100FC000FFF72EFD0099411A41F28830814266D820
:100FD00030688007F4D50EE0FFF722FD009007E0AF
:100FE000FFF71EFD0099411A41F28830814256D820
:100FF00030688007F4D42FB1DBF8001021F0805165
:10100000CBF80010A069C8B33D49091D0968C1F3B8
:10101000810102294AD00228504607D0C8F8600052
:1010200000E03CE0FFF7FCFC04463BE04746C8F824
:101030006000FFF7F5FC064605E000BFFFF7F0FC97
:10104000801B02282BD828688001F7D4D4E9070137
:101050000843A16A2E4A490802EB0141626A41EA4B
:101060008211084394F82C1040EA0161C9F800107D
:1010700001203866FFF7D4FC044606E03EE000BFDE
:10108000FFF7CEFC001B022809D828688001F7D59D
:1010900034E000BFFFF7C4FC001B022802D9032084
:1010A000BDE8F88F28688001F4D427E00128F7D044
:1010B000D9F80000E26900F4800191421CD1226A53
:1010C00000F03F01914217D147F6C071626A0140BA
:1010D000B1EB821F10D1A26A4FF0FF3300F4403110
:1010E00003EB5202B1EB024F06D194F82C1000F042
:1010F0007060B0EB016F01D00120D1E70020CFE795
:101100000438024000004742800E47420070004011
:101110000000FFFF10B5401EB0F1807F01D3012019
:1011200010BD4FF0E02460610F21601700F057FB05
:101130000020A06107202061002010BD704770478B
:1011400070B5040004D094F83D00002510B106E00D
:10115000012070BD84F83C50204600F023F8242084
:1011600084F83D002068C16821F40051C160204628
:1011700000F064FA2068016921F49041016120685F
:10118000416921F02A0141612068C16841F40051A0
:10119000C1602564202084F83D0084F83E000020D2
:1011A00070BD000070B586B0064614216846FFF792
:1011B000E4F82049306888423AD11F480025016888
:1011C00041F010010160006800F0100005901A481D
:1011D0001438016841F0020101600068694600F0BE
:1011E00002000590C02000900220CDE901050320F7
:1011F0000390072004901148FFF7F2FA114C1048B1
:1012000020604FF00060C4E901054014C4E90350B8
:1012100080106561C4E906504FF44030C4E9080508
:101220002046FFF73BFA08B1FFF765F9B463A66300
:1012300006B070BD00100140443802400004024076
:10124000406402405400002090F83E30202B0ED124
:1012500059B152B190F83C30012B08D0012380F8ED
:101260003C300023036300F06FBA01207047022076
:1012700070470000F0B50068204988423CD1204901
:101280004B788C78DB0843EA4413CD78A40944EA10
:1012900085040D794E7944EA852408886D08C0F3E9
:1012A0000A0245EAC615A1F11600C6F301178772B6
:1012B000B609C672CE8886810E89C6814E8906829D
:1012C0000E7B86744E7BC674CE898682098AC3F3F0
:1012D0000A03A2F58062C4F30A040280A3F58063C6
:1012E000C5F30A054380A4F580648480A5F5806574
:1012F000C580A1F580610181F0BD000000100140B2
:10130000CA0000207047FEE7094808B5016841F4AB
:10131000800101600068002200F480000090114606
:101320003A20FFF7EBFBBDE808403A20FFF7D8BBB7
:10133000303802402DE9F04186B014216846FFF7AD
:101340001CF827480024016841F001010160016890
:1013500001F001010591016841F00201016001689D
:1013600001F002010591016841F08001016001680E
:1013700001F080010591016841F0100101600168F0
:1013800001F010010591016841F020010160006841
:10139000144F00F020004FF400650590002229460C
:1013A0003846FFF737FBDFF84080EE000022314679
:1013B0004046FFF72FFB00950125CDE90154694612
:1013C00038460394FFF70CFA0096CDE901546946BC
:1013D00040460394FFF704FA06B0BDE8F081000030
:1013E0003038024000100240001402400E4810B590
:1013F0000C4901600D4941604FF48051816000212A
:101400004FF48062C0E903120C22C0E90521C161DA
:10141000FFF796FE002803D0BDE81040FFF76BB839
:1014200010BD00000010014010000020A086010047
:10143000FEE7FEE770477047FFF7F8BA30B593B0A4
:1014400030216846FEF799FF14210CA8FEF795FF9E
:1014500020480025016841F080510160006800F0DB
:10146000805011901C48016841F4404101600068BF
:10147000022400F4404011900120009000040190EB
:101480008001CDE9064006200890B420CDE909048A
:1014900004200B906846FFF787FC08B172B6FEE7A0
:1014A000FFF75EFB08B172B6FEE70CA90F2081E8DA
:1014B00031004FF4A0500F904FF480501090052150
:1014C0000CA8FFF785FB002801D072B6FEE713B029
:1014D00030BD000040380240007000400248016802
:1014E00041F470010160704788ED00E070B5846BD5
:1014F0002068406994F83D10C0F3C01000252129F0
:1015000004D118B1E584204600F08AF820684069CB
:1015100094F83E10C0F38010222904D118B1E5855B
:10152000204600F056F8206C40F010002064204661
:10153000FFF705FE70BD10B50146806B09680968AC
:10154000C9052FD40021C18501680C3151E8002F55
:1015500022F4807241E80023002BF5D10168143198
:1015600051E8002F22F0010241E80023002BF5D1C1
:101570000168143151E8002F22F0400241E80023B5
:10158000002BF5D1202180F83E10016B012909D1F3
:1015900001680C3151E8002F22F0100241E80023CD
:1015A000002BF5D1016B012902D0FFF763FE10BDBE
:1015B000818DFFF7C3FD10BD10B5806B016B012954
:1015C00002D0FFF79FFE10BD818D4908FFF7B6FDE1
:1015D00010BD01680C3151E8002F22F4907241E8EF
:1015E0000023002BF5D10168143151E8002F22F0BF
:1015F000010241E80023002BF5D1016B012909D13B
:1016000001680C3151E8002F22F0100241E800235C
:10161000002BF5D1202180F83E1000210163704796
:1016200001680C3151E8002F22F0C00241E800238C
:10163000002BF5D1202180F83D10704770B504468D
:1016400000680169E26821F4405111430161216998
:10165000A068E26908436169114308432168CA68C8
:1016600049F20C639A430243CA6020684169A26947
:1016700021F440711143416131492068884202D010
:101680003049884202D1FFF74DFB01E0FFF73AFBFA
:10169000E2690023192164253226B2F5004F626801
:1016A00028D0A0FB0101930F9200FEF7EFFD014649
:1016B000B0FBF5F06FF01802504301EB800006EB31
:1016C0000010B0FBF5F000F0F002B1FBF5F002EB1A
:1016D0000012B1FBF5F06FF01803584301EB8000E6
:1016E00006EB0010B0FBF5F000F00F00216810448D
:1016F000886070BDA0FB010192185B41FEF7C6FD3A
:101700000146B0FBF5F00201B1FBF5F06FF01803F4
:10171000584301EB800006EBC000B0FBF5F000F091
:10172000F80002EB4002B1FBF5F0584301EB8000FA
:1017300006EBC000B0FBF5F000F00700D6E70000B4
:10174000001001400014014038B5816282850025F7
:10175000134604460564222084F83E00A26B1C4810
:10176000D063A26B1B481064A26B1B48D064A06BB3
:101770000A4605652168A06B091DFEF7F9FF206880
:1017800001684068009084F83C50206948B12068A6
:101790000C3050E8001F41F4807140E80012002A2C
:1017A000F5D12068143050E8001F41F0010140E8F5
:1017B0000012002AF5D12068143050E8001F41F0D3
:1017C000400140E80012002AF5D1002038BD000099
:1017D00037150008B9150008ED140008FEE70907E1
:1017E000090E002804DB00F1E02080F800147047A7
:1017F00000F00F0000F1E02080F8141D7047000099
:10180000FFF71CF9FFF71AFEFFF794FDFFF77CFDC9
:10181000FFF7ECFD05480068C16841F01001C160A8
:10182000122203490148FFF70FFDFEE710000020D8
:10183000CA0000204FF04070E1EE100A7047000629
:101840001016000610160000000000000000010243
:101850000304060708090000000001020304000059
:10186000801800080000002010000000E8010008B7
:101870009018000810000020400700000402000833
:101880000100000010000000000000000024F4002F
:04000005080001AD41
:00000001FF
