:020000040800F2
:10000000880700204D0200084B15000895130008D2
:100010004915000843040008051B00080000000003
:10002000000000000000000000000000E5170008CC
:100030004504000800000000D1160008E71700087A
:1000400067020008670200086702000867020008EC
:1000500067020008670200086702000867020008DC
:1000600067020008670200086702000867020008CC
:1000700067020008670200086702000867020008BC
:1000800067020008670200086702000867020008AC
:10009000670200086702000867020008670200089C
:1000A000670200086702000867020008670200088C
:1000B000670200086702000867020008670200087C
:1000C000670200086702000867020008670200086C
:1000D000670200086702000867020008670200085C
:1000E000670200086702000867020008670200084C
:1000F000670200086702000867020008670200083C
:10010000670200086702000867020008670200082B
:10011000670200086702000867020008670200081B
:10012000670200086702000867020008670200080B
:1001300067020008670200086702000867020008FB
:1001400067020008670200086702000867020008EB
:1001500067020008670200086702000867020008DB
:1001600067020008670200086702000867020008CB
:10017000670200086702000867020008000000002C
:1001800067020008670200086702000867020008AB
:10019000670200086702000867020008670200089B
:1001A00000000000000000006702000800F002F8F4
:1001B00000F03CF80AA090E8000C82448344AAF1C5
:1001C0000107DA4501D100F031F8AFF2090EBAE8C3
:1001D0000F0013F0010F18BFFB1A43F0010318477B
:1001E0001C1F00003C1F0000103A24BF78C878C1D3
:1001F000FAD8520724BF30C830C144BF04680C602D
:10020000704700000023002400250026103A28BF74
:1002100078C1FBD8520728BF30C148BF0B60704778
:100220001FB501F03CFF1FBD10B510BD00F0D4F8A4
:100230001146FFF7F5FF01F0A5FD00F0F2F803B459
:10024000FFF7F2FF03BC00F0F5F800000948804713
:1002500009480047FEE7FEE7FEE7FEE7FEE7FEE7A8
:10026000FEE7FEE7FEE7FEE704480549054A064BC0
:10027000704700008D180008AD01000888010020BB
:1002800088070020880300208803002053EA020C1E
:1002900000F069802DE9F04B4FF00006002B1FBFE6
:1002A000B3FA83F503FA05F424FA05F65E4012BFAB
:1002B0001643B2FA82F502FA05F4C5F120051EBF15
:1002C00022FA05FC44EA0C04203556EA044C4FEAB5
:1002D000144418BF641C4FF000084FF0000990420E
:1002E00071EB030C39D3002919BFB1FA81F701FA78
:1002F00007F6B0FA80F700FA07F6C7F120071EBF2D
:1003000020FA07FC46EA0C062037B6FBF4FCA7EB04
:100310000507103F07F01F0BCBF120060CFA0BFB73
:100320002CFA06F644BFB3460026202FA4BF5E4633
:100330004FF0000B5BEA060C08BF4FF0010B19EB06
:100340000B09ABFB027C48EB0608C01B06FB02CC8A
:100350000BFB03CC71EB0C01C1E70B460246414697
:100360004846BDE8F08B13B54FF000004FF0000198
:10037000AFF30080BDE81C4070474FF0000200B5AD
:10038000134694469646203922BFA0E80C50A0E8B8
:100390000C50B1F12001BFF4F7AF090728BFA0E866
:1003A0000C5048BF0CC05DF804EB890028BF40F832
:1003B000042B08BF704748BF20F8022B11F0804F74
:1003C00018BF00F8012B7047704770477047000056
:1003D00000487047240100207546FFF7F9FFAE463C
:1003E00005006946534620F00700854618B020B541
:1003F000FFF73AFFBDE820404FF000064FF000073E
:100400004FF000084FF0000B21F00701AC46ACE8BC
:10041000C009ACE8C009ACE8C009ACE8C0098D4629
:10042000704710B50446AFF300802046BDE8104089
:10043000FFF705BF01491820ABBEFEE7260002000A
:100440007047FEE7704772B6FEE700002DE9F84FEF
:10045000DFF8F8A10022012403254FF00F090AF16B
:10046000040BAAF1040E00BF0B6804FA02F6334035
:10047000B34270D10F7907F00307012F01D0022F8B
:1004800016D187684FEA420805FA08FC27EA0C07EC
:10049000D1F80CC00CFA08FC4CEA070CC0F808C0F4
:1004A0004768B7430E79C6F3001696403E43466050
:1004B0000E79F643B6070AD0C7684FEA420C05FA30
:1004C0000CF6B7438E6806FA0CF63E43C6600E790A
:1004D00006F00306022E10D1D60800EB8608D8F8E5
:1004E000206057074FEAD76C09FA0CF7BE430F6933
:1004F00007FA0CF73743C8F8207006684FEA420C39
:1005000005FA0CF7BE430F7907F0030707FA0CF75B
:10051000374307604E6816F4403F1CD04C4E376896
:1005200047F480473760366822F0030706F48046B8
:100530000096484E07EB060CDCF8086897073F0F5B
:1005400009FA07F826EA0806DFF80C81404503D1CE
:100550004FF0000841E072E0DFF80081404502D131
:100560004FF0010839E0DFF8F880404502D14FF044
:10057000020832E0DFF8EC80404502D14FF003087A
:100580002BE0DFF8E480404502D14FF0040824E07E
:10059000DFF8D880404502D14FF005081DE0DFF8B4
:1005A000D080404502D14FF0060816E0DFF8C48045
:1005B000404502D14FF007080FE0DFF8BC8040450E
:1005C00002D14FF0080808E0DFF8B080404502D1C2
:1005D0004FF0090801E04FF00A0808FA07F848EA66
:1005E0000608CCF80888DAF800605746D1F804C04D
:1005F0009E435FEACC2C00D51E433E60DBF80060D2
:100600005F46D1F804C09E435FEA8C2C00D51E43A0
:100610003E60DEF800607746D1F804C09E435FEA92
:100620008C3C00D51E433E60084F083F3E68D1F821
:1006300004C09E435FEACC3C00D51E433E60521C82
:10064000102AFFF411AFBDE8F88F0000083C01400C
:1006500044380240003001400000024000040240E3
:1006600000080240000C024000100240001402404A
:1006700000180240001C02400020024000240240FA
:100680000AB1816170470904FBE7000001488068F6
:100690007047000000000020024881680278114481
:1006A00081607047000000200B4810B5016841F4DC
:1006B00000710160016841F480610160016841F4EA
:1006C00080710160032000F061F80F2000F006F84F
:1006D00000F024F8002010BD003C024070B50D4D24
:1006E00004464FF47A712878B1FBF0F00A490968A2
:1006F000B1FBF0F000F09BFC48B9102C07D20022AF
:100700002146501E00F022F800206C6070BD0120D0
:1007100070BD0000000000200C0000200A4808B551
:10072000016841F480410160006800F4804000905D
:100730000548001F016841F080510160006800F029
:100740008050009008BD000044380240F0B40E4BC9
:100750001B680C46C3F30223C3F10705042D00D91F
:100760000425191D072901D2002300E0DB1E012604
:1007700006FA05F1491E214099409E40761E16401A
:100780003143F0BC01F0BFB90CED00E0064900F0C8
:10079000070208684FF6FF03184040EA0220034AA8
:1007A00010430860704700000CED00E00000FA05FF
:1007B0002DE9F8431748016841F080510160006855
:1007C000154F00F08050012600903E64FFF75EFF59
:1007D00005464FF47A78114C05E000BFFFF756FF4D
:1007E000401B40450DD86068C003F7D57E64FFF715
:1007F0004DFF0546464607E0FFF748FF401BB04265
:1008000002D90320BDE8F88360688003F4D5002096
:10081000F8E700004038024000000E42007000403F
:100820002DE9F0470E46050065D0DFF81481D8F8B1
:100830000000F7B200F00F00B04207D288F8007055
:10084000D8F8000000F00F00B04254D128683D4CA9
:10085000810712D5400703D5206840F4E05020609E
:100860002878000703D5206840F4604020602068A5
:10087000A96820F0F000084320602878C0072DD038
:10088000304968680839012812D0022813D003289B
:1008900011D00968890700292DDA216821F00301A8
:1008A00001432160FFF7F2FE814641F2883A0EE0F3
:1008B00009688903EFE709688901ECE7FFF7E6FEBD
:1008C000A0EB0901514502D90320BDE8F08720685B
:1008D000696800F00C00B0EB810FEFD1D8F8001080
:1008E000404601F00F01B14207D90770006800F0DF
:1008F0000F00B04201D00120E7E72878400705D576
:100900002068E96820F4E050084320602878000758
:1009100006D52068296920F4604040EAC1002060C3
:1009200000F018F82168084AC1F30311515CC8406F
:100930000649086006480068FFF7D0FE0020C4E7BB
:10094000003C024008380240A82000080C000020AB
:1009500004000020154810B5006810F00C0214487F
:1009600013D01449042A0FD0082A0ED10F4C241F8B
:100970002268236802F03F025B0207D52068C0F3BB
:100980008810A0FB010106E0084610BD2168C1F3F4
:100990008811A1FB00010023FFF778FC2168C1F357
:1009A0000141491C4900B0FBF1F010BD083802407C
:1009B0000024F400001BB7002DE9F84F04006ED0AE
:1009C0002078DFF84C93C007A9F104054AD009F15B
:1009D00004000168C1F38101012908D00068C0F357
:1009E000810002280AD1D9F80000400206D5286803
:1009F000800337D560680028E1D033E06068B0F547
:100A0000803F10D0B0F5A02F286810D020F480309F
:100A10002860286820F4802028606068A8B1FFF76B
:100A200035FE06460DE0286840F48030F4E740F4D7
:100A300080202860F7E700BFFFF728FE801B6428AE
:100A400073D828688003F7D50CE0FFF71FFE064631
:100A500005E000BFFFF71AFE801B6428F0D8286865
:100A60008003F7D42078DFF8AC8280074FF0000ACB
:100A70003ED5A748001D016811F00C0F08D0006892
:100A8000C0F3810002280BD1D9F80000400207D43E
:100A90002868800716D5E068012800D112E033E10C
:100AA000E068B8B10120C8F80000FFF7EFFD064686
:100AB00005E000BFFFF7EAFD801B0228C0D82868C8
:100AC0008007F7D52868216920F0F80040EAC100C6
:100AD00028600DE0C8F800A0FFF7D8FD064604E046
:100AE000FFF7D4FD801B02281FD828688007F7D4A1
:100AF0002078000722D5864F87486169703771B129
:100B000001210160FFF7C2FD064604E0FFF7BEFDCC
:100B1000801B022809D838688007F7D50EE0C0F896
:100B200000A0FFF7B3FD064605E082E0FFF7AEFD4B
:100B3000801B02287DD838688007F7D420784007CA
:100B400068D5DFF8CCB100270BF13C0BDBF80000D7
:100B5000C0000BD4DBF8001041F08051CBF800103E
:100B6000DBF80000012700F0805000906B4E3068E9
:100B7000C00510D4306840F480703060FFF786FD07
:100B8000009005E0FFF782FD0099401A022850D836
:100B90003068C005F6D55E4EA0686C3601280FD0CF
:100BA0000528306810D020F001003060306820F057
:100BB00004003060A068B8B1FFF768FD00900FE056
:100BC000306840F00100F4E740F004003060F7E7DF
:100BD000FFF75CFD0099411A41F28830814266D8E6
:100BE00030688007F4D50EE0FFF750FD009007E075
:100BF000FFF74CFD0099411A41F28830814256D8E6
:100C000030688007F4D42FB1DBF8001021F0805158
:100C1000CBF80010A069C8B33D49091D0968C1F3AC
:100C2000810102294AD00228504607D0C8F8600046
:100C300000E03CE0FFF72AFD04463BE04746C8F8E9
:100C40006000FFF723FD064605E000BFFFF71EFD2D
:100C5000801B02282BD828688001F7D4D4E907012B
:100C60000843A16A2E4A490802EB0141626A41EA3F
:100C70008211084394F82C1040EA0161C9F8001071
:100C800001203866FFF702FD044606E03EE000BFA3
:100C9000FFF7FCFC001B022809D828688001F7D563
:100CA00034E000BFFFF7F2FC001B022802D903204A
:100CB000BDE8F88F28688001F4D427E00128F7D038
:100CC000D9F80000E26900F4800191421CD1226A47
:100CD00000F03F01914217D147F6C071626A0140AE
:100CE000B1EB821F10D1A26A4FF0FF3300F4403104
:100CF00003EB5202B1EB024F06D194F82C1000F036
:100D00007060B0EB016F01D00120D1E70020CFE788
:100D10000438024000004742800E47420070004005
:100D20000000FFFF70B5040009D0606A002540B1E3
:100D300025616561A56294F8510040B10CE0012085
:100D400070BD6068B0F5827FF4D0E561F2E784F8A9
:100D50005050204600F044F8022084F851002068EA
:100D6000016821F040010160A088218900F48270AF
:100D700001F404410843A18901F400610843217C86
:100D800001F002010843217D01F001010843218B9C
:100D900001F400710843217F01F03801084394F801
:100DA000201001F080010843218D01F40051084317
:100DB00021680860A069042101EA104094F8241019
:100DC00001F010010843216848602068C16921F4DE
:100DD0000061C1616565012084F85100002070BD8B
:100DE00010B586B0044614216846FFF7C6FA1449C8
:100DF0002068884221D113480021026842F4801201
:100E00000260006800F4801005900E4814380268F3
:100E100042F020020260006800F0200005904FF4CC
:100E2000607000900220CDE90101032003900520AD
:100E3000049069460448FFF709FB06B010BD0000A6
:100E40000050014044380240001402402DE9F84FA0
:100E5000044690F8500000270A9E1D4692468B4695
:100E60004FF0010901280ED0012084F85000FFF74F
:100E70000DFC804694F85100616801280CD0B1F552
:100E8000827F07D102E00220BDE8F88FA16809B98E
:100E9000042801D00227C2E0BBF1000F27D0BAF12D
:100EA000000F24D01DB394F85100042802D005206F
:100EB00084F8510000206065C4F838A0E587A58754
:100EC000C4F830B0E586A5862064606420680168B7
:100ED000490603D4016841F040010160E068B0F5C3
:100EE000006F606805D0E8B3012D46D07FE0012790
:100EF00095E008B1012D39D1206B21680088C860C8
:100F0000206B801C2063E08E401EE0862EE020686F
:100F1000816889070FD5E18E69B1B9F1010F0AD156
:100F2000216B0988C160206B801C2063E08E401E0D
:100F3000E0864FF0000920688168C9070CD0E18F76
:100F400051B1C068A16B0880A06B801CA063E08FCA
:100F5000401EE0874FF00109FFF798FBA0EB080067
:100F6000B04200E009E001D3701C50D1E08E0028AF
:100F7000CDD1E08F0028CAD13FE0206B21680078F6
:100F80000873206B401C2063E08E401EE0862EE03C
:100F90002068816889070FD5E18E69B1B9F1010F29
:100FA0000AD1216B09780173206B401C2063E08E0D
:100FB000401EE0864FF0000920688168C9070CD008
:100FC000E18F51B1C068A16B0870A06B401CA06399
:100FD000E08F401EE0874FF00109FFF757FBA0EBC1
:100FE0000800B04202D3701C01D010E07EB1E08E48
:100FF0000028CDD1E08F0028CAD142463146204694
:1010000000F068FB28B101272020606507E0032776
:1010100005E0A06818B92068C168806800900120C8
:1010200084F85100002084F8500038462CE710B5B1
:10103000401EB0F1807F01D3012010BD4FF0E024AD
:1010400060610F21601700F05EFD0020A0610720A5
:101050002061002010BD10B5040003D094F83D00BD
:1010600010B107E0012010BD002084F83C002046AC
:1010700000F01EF8022084F83D00211D206800F0D9
:101080000DFC012084F8460084F83E0084F83F00FF
:1010900084F8400084F8410084F8420084F843005A
:1010A00084F8440084F8450084F83D00002010BD19
:1010B00008B500680649884208D10648016841F42D
:1010C00000310160006800F40030009008BD0000AD
:1010D000004401404438024090F83D10012901D0FD
:1010E00001207047022180F83D10006811498842B4
:1010F00014D0B0F1804F11D00F4988420ED00F4963
:1011000088420BD00E49884208D00E49884205D04B
:101110000D49884202D00D49884204D1816801F00E
:101120000701062903D0016841F001010160002098
:10113000704700000000014000040040000800402B
:10114000000C004000040140004001400018004035
:1011500010B586B0044614216846FFF70EF90E4913
:101160002068884216D10D480021026842F0020230
:101170000260006800F0020005904FF4807000905B
:101180000220CDE901010320CDE90310694604489E
:10119000FFF75CF906B010BD004401403038024052
:1011A0000004024070B5044690F83C0000260D464D
:1011B00001280FD0012084F83C006AB1042A1DD018
:1011C000082A2FD00C2A3FD00126002084F83C00AA
:1011D000304670BD022070BD206800F0D1FB206851
:1011E000816941F0080181612068816921F0040171
:1011F0008161206881692A69114311E0206800F04B
:10120000EFFB2068816941F4006181612068816998
:1012100021F480618161206881692A6941EA0221A3
:101220008161D2E7206800F011FC2068C16941F0BB
:101230000801C1612068C16921F00401C161206811
:10124000C1692A69114311E0206800F033FC20686D
:10125000C16941F40061C1612068C16921F4806104
:10126000C1612068C1692A6941EA0221C161ACE714
:1012700010B5040003D094F83D0010B107E0012040
:1012800010BD002084F83C00204600F01EF802202B
:1012900084F83D00211D206800F000FB012084F847
:1012A000460084F83E0084F83F0084F8400084F84B
:1012B000410084F8420084F8430084F8440084F834
:1012C000450084F83D00002010BD704710B504466D
:1012D000022249B104290ED0082913D094F8410004
:1012E000012816D0012010BD94F83E000128F9D144
:1012F00084F83E200FE094F83F000128F2D184F8F2
:101300003F2008E094F840000128EBD184F8402009
:1013100001E084F841200122206800F023FB1649F7
:101320002068164A884201D0904203D1436C43F4AE
:10133000004343642068884213D0B0F1804F10D03E
:101340000F4988420DD00F4988420AD00E49884281
:1013500007D0904205D00D49884202D00C498842FE
:1013600004D1816801F00701062903D0016841F02A
:1013700001010160002010BD000001400004014097
:101380000004004000080040000C00400040014004
:1013900000180040FEE700002DE9F04786B0142158
:1013A0006846FEF7EAFF3B480025016841F010015E
:1013B0000160016801F010010591016841F002012E
:1013C0000160016801F002010591016841F001012D
:1013D0000160016801F001010591016841F080019F
:1013E0000160016801F080010591016841F0200170
:1013F00001600068DFF8A09000F020000590012255
:1014000004214846FFF73CF9DFF890A00122402173
:101410005046FFF735F94FF4006700223946484639
:10142000FFF72EF94FF48048002241465046FFF75F
:1014300027F90820CDE900050124694602944846B1
:10144000FFF704F80420CDE900040326CDE90246A5
:1014500069464846FEF7FAFF4020CDE90004CDE991
:10146000024669465046FEF7F1FF0097CDE9014577
:10147000694648460395FEF7E9FFCDF80080CDE9BF
:101480000145694650460395FEF7E0FF06B0BDE80A
:10149000F087000030380240001002400014024083
:1014A0000F4810B50D4901604FF482714160002171
:1014B0008160C1604FF400720161C0E90512C16131
:1014C0000162416281620A21C162FFF72BFC0028A0
:1014D00003D0BDE81040FEF7B6BF10BD005001407C
:1014E0001800002010B588B01C216846FEF745FFA3
:1014F000144813490024C0E9001441F28731C0E9BF
:10150000024104618461FFF7A6FD08B1FEF79BFF6D
:101510000C48FFF7ADFE08B1FEF795FF6020CDE95E
:10152000000402940022694606480494FFF73AFE3C
:1015300008B1FEF788FF0348FFF70AFE08B010BDA8
:101540000044014070000020FEE7FEE7A0B1D0EDAE
:10155000101AC0ED111A90ED0F1A80ED101AC0ED9F
:10156000060A80ED070A30EEC00A80ED0F0A017806
:1015700029B101293BD078E09FED3D0A7047D0EDBD
:10158000010A60EE801AC0ED091AD0ED0A0A90ED4A
:10159000022A42EE000A30EE410AC0ED0A0A90ED3E
:1015A0000D2A80ED0E2A90ED0C2A80ED0D2A80ED9B
:1015B0000C0A90ED031A21EE001A80ED0B1A90ED43
:1015C000050AF4EEC00AF1EE10FA09DCB1EE400AA9
:1015D000F4EEC00AF1EE10FA02D390ED0A0A01E02F
:1015E00080ED0A0A31EE800A30EE010A2BE070EE3F
:1015F000410A90ED012A20EE822A80ED092AD0EDE1
:10160000020A60EE800AC0ED0A0AD0ED0D2A72EEE1
:10161000200AC0ED0E2AD0ED0C2AC0ED0D2AF0EE06
:10162000002A01EE620A30EE210A80ED0C0A90EDEC
:10163000031A21EE000A80ED0B0A30EE800AD0ED8D
:10164000080A30EE200A80ED080AD0ED040AB4EE54
:10165000E00AF1EE10FA06DCF1EE600AB4EEE00A00
:10166000F1EE10FA01D2C0ED080A90ED080A7047B9
:1016700000000000002828D0002A26D0017092ED3A
:10168000001A80ED011A92ED011A80ED021A92ED16
:10169000021A80ED031A80ED040A9FED0C0AC0EDDA
:1016A000050A80ED0E0A80ED0D0A80ED0C0A80ED32
:1016B000080A80ED0B0A80ED0A0A80ED090A80ED28
:1016C000110A80ED100A80ED0F0A7047000000003B
:1016D0007047000038B504461248134B0068B0FB51
:1016E000F3F04FF47A73584300906068B0F5827F4E
:1016F0000DD10B46009200228021204600F016F802
:1017000070B1606D40F020006065032038BD009826
:1017100030B1401E009020688068C0430006F6D5B6
:10172000002038BD0C00002000366E012DE9F84382
:101730001E46914688460446089DFEF7A7FF401BBB
:10174000351AFEF7A3FF074625480068C0F3CB30E3
:10175000684338E0701C37D0FEF798FFC01BA842E2
:1017600003D215B1009860B32CE02068416821F0E5
:10177000E00141606068B0F5827F0BD1A068B0F5F0
:10178000004F02D0B0F5806F04D12068016821F0CD
:1017900040010160A06AB0F5005F09D120680168CE
:1017A00021F4005101602068016841F4005101609A
:1017B000012084F85100002084F850000320BDE887
:1017C000F8830025401E00902068816838EA0100F7
:1017D00004D000214945BDD10020F0E70121F9E7FF
:1017E0000C0000207047FEF757BF000030B593B0E3
:1017F00030216846FEF7C1FD14210CA8FEF7BDFD9F
:1018000020480025016841F080510160006800F027
:10181000805011901C48016841F44041016000680B
:10182000022400F440401190012000900004019037
:101830008001CDE9064006200890B420CDE90904D6
:1018400004200B906846FFF7B7F808B172B6FEE7C0
:10185000FEF7AEFF08B172B6FEE70CA90F2081E8D3
:1018600031004FF4A0500F904FF48050109005219C
:101870000CA8FEF7D5FF002801D072B6FEE713B022
:1018800030BD00004038024000700040024801684E
:1018900041F470010160704788ED00E0F0B5026826
:1018A000254C264D264E274F274B4FF0804CA0420B
:1018B00009D0604507D0A84205D0B04203D0B84255
:1018C00001D0984204D122F0700E4A6842EA0E021A
:1018D000A0421BD0604519D0A84217D0B04215D005
:1018E000B84213D0984211D0184DA8420ED0184DCE
:1018F000A8420BD0174DA84208D0174DA84205D0DA
:10190000164DA84202D0164DA84203D122F44075CC
:10191000CA682A434D6922F080022A4302608A681D
:10192000C2620A688262A04201D0984201D109696C
:10193000016301214161F0BD00000140000400404D
:1019400000080040000C004000040140004001403D
:10195000004401400048014000180040001C0040C5
:101960000020004010B501F01F030121046A9940D6
:101970008C430462016A9A401143016210BD000069
:10198000F0B5026A22F001020262036A42688469C9
:10199000124E24F073050C682C4323F002058B686B
:1019A0002B430D4DA84201D0B04205D123F00807CA
:1019B000CB683B4323F00403A84201D0B04205D1D9
:1019C0004D6922F4407215438A692A43426084615A
:1019D000496841630362F0BD00000140000401401A
:1019E000F0B5026A22F010020262026A436884695A
:1019F0000D6824F4E64444EA05248D6822F02002B0
:101A000042EA05120F4D104EA84201D0B04206D155
:101A1000CF6822F0800242EA071222F04002A84278
:101A200001D0B04207D14D6923F4406343EA8503F6
:101A30008D6943EA8503436084614968816302627A
:101A4000F0BD00000000014000040140F0B5026A52
:101A500022F480720262026A4368C46922F400724E
:101A600024F073050C68124E2C438D6842EA05225F
:101A70000E4DA84201D0B04206D1CF6822F40062D8
:101A800042EA072222F48062A84201D0B04207D184
:101A90004D6923F4405343EA05138D6943EA051366
:101AA0004360C4614968C1630262F0BD0000014047
:101AB0000004014030B5026A22F480520262046AD6
:101AC0004268C3690D6823F4E64343EA05238D6841
:101AD00024F4005444EA0534084DA84202D0084DCD
:101AE000A84204D14D6922F4804242EA8512426044
:101AF000C36149680164046230BD00000000014018
:101B000000040140FEE70907090E002804DB00F18C
:101B1000E02080F80014704700F00F0000F1E02092
:101B200080F8141D7047000010B50E48FFF7D4FA76
:101B300000210C48FFF7CAFB00F058F90028FBD140
:101B400000F0B8F80028FBD1094ADFED070A9FED45
:101B5000070A00210748FFF78DFD0749012008709B
:101B600010BD0000700000200080894500A08C4559
:101B7000F0200008DC00002010000020014908606F
:101B8000704700003444014010B5084800F0C6F921
:101B900006480C3000F088F9054800F023FA0348A5
:101BA000BDE81040183000F0C3B80000B8000020B5
:101BB000140000200F4810B590ED010ADFED0C0A6B
:101BC0000D48FFF7C3FC0C4890ED080AB5EEC00ABB
:101BD000F1EE10FA03D29FED090A80ED080ABCEE7F
:101BE000C00ABDE8104010EE100A80B2FFF7C6BF71
:101BF0000000204210000020DC0000200000000057
:101C0000704770B514460D46064608E0304600F0B1
:101C100009F8761C641E05F8010BF6B2E4B2002C3C
:101C2000F4D170BD08B509A10322096800918DF8AF
:101C300001006946252000F0F3F94FF4FA6000F046
:101C400023FA492000F0BEF908BD00008E00810093
:101C500008B506A2126800928DF801008DF80210F6
:101C600004226946312000F0DBF908BD0E00008037
:101C7000012204210148FEF703BD000000100240CC
:101C8000002204210148FEF7FBBC000000100240C6
:101C900008B504A00322006800906946252000F0E2
:101CA000BFF908BD8E028800704700F0E0B900F06F
:101CB000EBB900002DE9F0410024FFF7A1FFFFF789
:101CC000F3FFFFF7DDFF3220FFF7EFFF3220FFF7D2
:101CD000ECFFFFF7CDFF0020FFF7A4FF102802D094
:101CE0004020BDE8F081114D04EB44067719A85D52
:101CF0007978FFF7ADFF9620FFF7D9FFA85DFFF7D2
:101D000091FF06469620FFF7D2FF7878B04204D0C4
:101D100004EB440028448078E3E7641CE4B2042C1C
:101D2000E2D3FFF7B5FF0020DBE70000B820000892
:101D30001CB50446062269460220FFF762FFBDF982
:101D4000000000EE100AF8EEC00A9FED0D0A60EEEA
:101D5000800AC4ED000ABDF9020000EE900AF8EE18
:101D6000E00A60EE800AC4ED010ABDF9040000EE4D
:101D7000900AF8EEE00A20EE800A84ED020A1CBD0B
:101D80009A99993EFEF790FCFFF730FDFFF704FBB0
:101D9000FFF786FBFFF7A6FBFFF7C6FEFFF7F4FE93
:101DA000FFF708FFFAE77047012240210148FEF7DC
:101DB00067BC000000140240002240210148FEF7E9
:101DC0005FBC00000014024001B582B04FF47A708D
:101DD0000090012301AA02A90248FFF737F89DF8F5
:101DE00004000EBD18000020704700002DE9F041EE
:101DF0004FF0960832250024FFF7D5FFFFF7F4FFD8
:101E0000752000F0DFF8404600F04AF8752000F039
:101E1000D9F8404600F044F880216B2000F018F912
:101E2000284600F03BF8752000F0CCF8404600F062
:101E300037F8752000F0C6F8404600F031F87520FC
:101E400000F0C0F80546404600F02AF8702D02D098
:101E50008020BDE8F081104D04EB44067719A85DA1
:101E6000797800F0F5F8404600F01AF8A85D00F027
:101E7000A9F80646404600F013F87878B04204D03E
:101E800004EB440028448078E3E7641CE4B20E2CA1
:101E9000E2D30020DDE70000C420000800F0E7B82E
:101EA00080B200F0F1B800001CB504460622694675
:101EB0003B2000F06DF89DF800009DF80110000235
:101EC00000B2084300EE100AF8EEC00A9FED120AB5
:101ED00060EE800AC4ED000A9DF802009DF8031030
:101EE000000200B2084300EE900AF8EEE00A60EE4D
:101EF000800AC4ED010A9DF804009DF80510000257
:101F000000B2084300EE900AF8EEE00A20EE800AE4
:101F100084ED020A1CBD0000CDCC1C3A1CB5044661
:101F200006226946432000F033F89DF800009DF832
:101F30000110000200B2084300EE100AF8EEC00AD9
:101F40009FED120A60EE800AC4ED000A9DF80200BF
:101F50009DF80310000200B2084300EE900AF8EE6C
:101F6000E00A60EE800AC4ED010A9DF804009DF8C5
:101F70000510000200B2084300EE900AF8EEE00AF5
:101F800020EE800A84ED020A1CBD000058A00B3A26
:101F900070B516460D460446FFF70EFF44F080006C
:101FA000FFF712FF56B1002406E0FF20FFF70CFFF9
:101FB000641C05F8010BE4B2B442F6D3BDE87040EE
:101FC000FFF7F2BE10B50446FFF7F6FE44F08000BE
:101FD000FFF7FAFEFF20FFF7F7FE0446FFF7E4FEE7
:101FE000204610BD38B50446022269464120FFF75D
:101FF000CFFF9DF800009FED091A000201B29DF885
:102000000100014300EE101AF8EEC00AB3EE070A11
:1020100000EE810A84ED000A38BD00006F12033B18
:1020200070B516460D460446FFF7C6FE2046FFF77C
:10203000CBFE4EB1002405E02878FFF7C5FE641CF6
:10204000E4B26D1CB442F7D3BDE87040FFF7ACBEFC
:1020500070B50D460446FFF7AFFE2046FFF7B4FE0D
:102060002846FFF7B1FEBDE87040FFF79DBE00B502
:1020700002464FF47A7304E0184600F005F8521E49
:1020800092B2002AF8D100BD06E03221491E11F0BB
:10209000FF01FBD1401E80B20028F6D170474FF0FF
:1020A0004070E1EE100A70470000000000000000E0
:1020B00001020304060708090B080141090242C096
:1020C000030A0B036B00016C00021900031A0204DF
:1020D0001B10061C00071D00081F0F0D244D09379B
:1020E000020538010B67010C69C00D6A300A000057
:1020F0000000C844CDCC4C3E000000001C2100086C
:102100000000002018000000E80100083421000849
:102110001800002070070000040200080100000001
:1021200010000000000000000024F4000000000087
:0421300000000000AB
:04000005080001AD41
:00000001FF
